{
  "_format": "hh-sol-artifact-1",
  "contractName": "AaartoNFT",
  "sourceName": "contracts/AaartoNFT.sol",
  "abi": [
    {
      "inputs": [],
      "stateMutability": "nonpayable",
      "type": "constructor"
    },
    {
      "inputs": [],
      "name": "AccessControlBadConfirmation",
      "type": "error"
    },
    {
      "inputs": [
        {
          "internalType": "address",
          "name": "account",
          "type": "address"
        },
        {
          "internalType": "bytes32",
          "name": "neededRole",
          "type": "bytes32"
        }
      ],
      "name": "AccessControlUnauthorizedAccount",
      "type": "error"
    },
    {
      "inputs": [],
      "name": "ERC721EnumerableForbiddenBatchMint",
      "type": "error"
    },
    {
      "inputs": [
        {
          "internalType": "address",
          "name": "sender",
          "type": "address"
        },
        {
          "internalType": "uint256",
          "name": "tokenId",
          "type": "uint256"
        },
        {
          "internalType": "address",
          "name": "owner",
          "type": "address"
        }
      ],
      "name": "ERC721IncorrectOwner",
      "type": "error"
    },
    {
      "inputs": [
        {
          "internalType": "address",
          "name": "operator",
          "type": "address"
        },
        {
          "internalType": "uint256",
          "name": "tokenId",
          "type": "uint256"
        }
      ],
      "name": "ERC721InsufficientApproval",
      "type": "error"
    },
    {
      "inputs": [
        {
          "internalType": "address",
          "name": "approver",
          "type": "address"
        }
      ],
      "name": "ERC721InvalidApprover",
      "type": "error"
    },
    {
      "inputs": [
        {
          "internalType": "address",
          "name": "operator",
          "type": "address"
        }
      ],
      "name": "ERC721InvalidOperator",
      "type": "error"
    },
    {
      "inputs": [
        {
          "internalType": "address",
          "name": "owner",
          "type": "address"
        }
      ],
      "name": "ERC721InvalidOwner",
      "type": "error"
    },
    {
      "inputs": [
        {
          "internalType": "address",
          "name": "receiver",
          "type": "address"
        }
      ],
      "name": "ERC721InvalidReceiver",
      "type": "error"
    },
    {
      "inputs": [
        {
          "internalType": "address",
          "name": "sender",
          "type": "address"
        }
      ],
      "name": "ERC721InvalidSender",
      "type": "error"
    },
    {
      "inputs": [
        {
          "internalType": "uint256",
          "name": "tokenId",
          "type": "uint256"
        }
      ],
      "name": "ERC721NonexistentToken",
      "type": "error"
    },
    {
      "inputs": [
        {
          "internalType": "address",
          "name": "owner",
          "type": "address"
        },
        {
          "internalType": "uint256",
          "name": "index",
          "type": "uint256"
        }
      ],
      "name": "ERC721OutOfBoundsIndex",
      "type": "error"
    },
    {
      "inputs": [
        {
          "internalType": "address",
          "name": "owner",
          "type": "address"
        }
      ],
      "name": "OwnableInvalidOwner",
      "type": "error"
    },
    {
      "inputs": [
        {
          "internalType": "address",
          "name": "account",
          "type": "address"
        }
      ],
      "name": "OwnableUnauthorizedAccount",
      "type": "error"
    },
    {
      "anonymous": false,
      "inputs": [
        {
          "indexed": true,
          "internalType": "address",
          "name": "owner",
          "type": "address"
        },
        {
          "indexed": true,
          "internalType": "address",
          "name": "approved",
          "type": "address"
        },
        {
          "indexed": true,
          "internalType": "uint256",
          "name": "tokenId",
          "type": "uint256"
        }
      ],
      "name": "Approval",
      "type": "event"
    },
    {
      "anonymous": false,
      "inputs": [
        {
          "indexed": true,
          "internalType": "address",
          "name": "owner",
          "type": "address"
        },
        {
          "indexed": true,
          "internalType": "address",
          "name": "operator",
          "type": "address"
        },
        {
          "indexed": false,
          "internalType": "bool",
          "name": "approved",
          "type": "bool"
        }
      ],
      "name": "ApprovalForAll",
      "type": "event"
    },
    {
      "anonymous": false,
      "inputs": [
        {
          "indexed": false,
          "internalType": "uint256",
          "name": "_fromTokenId",
          "type": "uint256"
        },
        {
          "indexed": false,
          "internalType": "uint256",
          "name": "_toTokenId",
          "type": "uint256"
        }
      ],
      "name": "BatchMetadataUpdate",
      "type": "event"
    },
    {
      "anonymous": false,
      "inputs": [
        {
          "indexed": false,
          "internalType": "uint256",
          "name": "_tokenId",
          "type": "uint256"
        }
      ],
      "name": "MetadataUpdate",
      "type": "event"
    },
    {
      "anonymous": false,
      "inputs": [
        {
          "indexed": true,
          "internalType": "address",
          "name": "to",
          "type": "address"
        },
        {
          "indexed": true,
          "internalType": "uint256",
          "name": "tokenID",
          "type": "uint256"
        },
        {
          "indexed": false,
          "internalType": "string",
          "name": "tokenURI",
          "type": "string"
        }
      ],
      "name": "Mint",
      "type": "event"
    },
    {
      "anonymous": false,
      "inputs": [
        {
          "indexed": true,
          "internalType": "address",
          "name": "previousOwner",
          "type": "address"
        },
        {
          "indexed": true,
          "internalType": "address",
          "name": "newOwner",
          "type": "address"
        }
      ],
      "name": "OwnershipTransferred",
      "type": "event"
    },
    {
      "anonymous": false,
      "inputs": [
        {
          "indexed": true,
          "internalType": "bytes32",
          "name": "role",
          "type": "bytes32"
        },
        {
          "indexed": true,
          "internalType": "bytes32",
          "name": "previousAdminRole",
          "type": "bytes32"
        },
        {
          "indexed": true,
          "internalType": "bytes32",
          "name": "newAdminRole",
          "type": "bytes32"
        }
      ],
      "name": "RoleAdminChanged",
      "type": "event"
    },
    {
      "anonymous": false,
      "inputs": [
        {
          "indexed": true,
          "internalType": "bytes32",
          "name": "role",
          "type": "bytes32"
        },
        {
          "indexed": true,
          "internalType": "address",
          "name": "account",
          "type": "address"
        },
        {
          "indexed": true,
          "internalType": "address",
          "name": "sender",
          "type": "address"
        }
      ],
      "name": "RoleGranted",
      "type": "event"
    },
    {
      "anonymous": false,
      "inputs": [
        {
          "indexed": true,
          "internalType": "bytes32",
          "name": "role",
          "type": "bytes32"
        },
        {
          "indexed": true,
          "internalType": "address",
          "name": "account",
          "type": "address"
        },
        {
          "indexed": true,
          "internalType": "address",
          "name": "sender",
          "type": "address"
        }
      ],
      "name": "RoleRevoked",
      "type": "event"
    },
    {
      "anonymous": false,
      "inputs": [
        {
          "indexed": true,
          "internalType": "address",
          "name": "from",
          "type": "address"
        },
        {
          "indexed": true,
          "internalType": "address",
          "name": "to",
          "type": "address"
        },
        {
          "indexed": true,
          "internalType": "uint256",
          "name": "tokenId",
          "type": "uint256"
        }
      ],
      "name": "Transfer",
      "type": "event"
    },
    {
      "inputs": [],
      "name": "DEFAULT_ADMIN_ROLE",
      "outputs": [
        {
          "internalType": "bytes32",
          "name": "",
          "type": "bytes32"
        }
      ],
      "stateMutability": "view",
      "type": "function"
    },
    {
      "inputs": [],
      "name": "MINTER_ROLE",
      "outputs": [
        {
          "internalType": "bytes32",
          "name": "",
          "type": "bytes32"
        }
      ],
      "stateMutability": "view",
      "type": "function"
    },
    {
      "inputs": [
        {
          "internalType": "address",
          "name": "to",
          "type": "address"
        },
        {
          "internalType": "uint256",
          "name": "tokenId",
          "type": "uint256"
        }
      ],
      "name": "approve",
      "outputs": [],
      "stateMutability": "nonpayable",
      "type": "function"
    },
    {
      "inputs": [
        {
          "internalType": "address",
          "name": "owner",
          "type": "address"
        }
      ],
      "name": "balanceOf",
      "outputs": [
        {
          "internalType": "uint256",
          "name": "",
          "type": "uint256"
        }
      ],
      "stateMutability": "view",
      "type": "function"
    },
    {
      "inputs": [
        {
          "internalType": "uint256",
          "name": "tokenId",
          "type": "uint256"
        }
      ],
      "name": "burn",
      "outputs": [],
      "stateMutability": "nonpayable",
      "type": "function"
    },
    {
      "inputs": [
        {
          "internalType": "uint256",
          "name": "tokenId",
          "type": "uint256"
        }
      ],
      "name": "getApproved",
      "outputs": [
        {
          "internalType": "address",
          "name": "",
          "type": "address"
        }
      ],
      "stateMutability": "view",
      "type": "function"
    },
    {
      "inputs": [
        {
          "internalType": "bytes32",
          "name": "role",
          "type": "bytes32"
        }
      ],
      "name": "getRoleAdmin",
      "outputs": [
        {
          "internalType": "bytes32",
          "name": "",
          "type": "bytes32"
        }
      ],
      "stateMutability": "view",
      "type": "function"
    },
    {
      "inputs": [
        {
          "internalType": "bytes32",
          "name": "role",
          "type": "bytes32"
        },
        {
          "internalType": "address",
          "name": "account",
          "type": "address"
        }
      ],
      "name": "grantRole",
      "outputs": [],
      "stateMutability": "nonpayable",
      "type": "function"
    },
    {
      "inputs": [
        {
          "internalType": "bytes32",
          "name": "role",
          "type": "bytes32"
        },
        {
          "internalType": "address",
          "name": "account",
          "type": "address"
        }
      ],
      "name": "hasRole",
      "outputs": [
        {
          "internalType": "bool",
          "name": "",
          "type": "bool"
        }
      ],
      "stateMutability": "view",
      "type": "function"
    },
    {
      "inputs": [
        {
          "internalType": "address",
          "name": "owner",
          "type": "address"
        },
        {
          "internalType": "address",
          "name": "operator",
          "type": "address"
        }
      ],
      "name": "isApprovedForAll",
      "outputs": [
        {
          "internalType": "bool",
          "name": "",
          "type": "bool"
        }
      ],
      "stateMutability": "view",
      "type": "function"
    },
    {
      "inputs": [],
      "name": "name",
      "outputs": [
        {
          "internalType": "string",
          "name": "",
          "type": "string"
        }
      ],
      "stateMutability": "view",
      "type": "function"
    },
    {
      "inputs": [],
      "name": "owner",
      "outputs": [
        {
          "internalType": "address",
          "name": "",
          "type": "address"
        }
      ],
      "stateMutability": "view",
      "type": "function"
    },
    {
      "inputs": [
        {
          "internalType": "uint256",
          "name": "tokenId",
          "type": "uint256"
        }
      ],
      "name": "ownerOf",
      "outputs": [
        {
          "internalType": "address",
          "name": "",
          "type": "address"
        }
      ],
      "stateMutability": "view",
      "type": "function"
    },
    {
      "inputs": [
        {
          "internalType": "address",
          "name": "to",
          "type": "address"
        },
        {
          "internalType": "string",
          "name": "uri",
          "type": "string"
        }
      ],
      "name": "preSafeMint",
      "outputs": [],
      "stateMutability": "nonpayable",
      "type": "function"
    },
    {
      "inputs": [],
      "name": "renounceOwnership",
      "outputs": [],
      "stateMutability": "nonpayable",
      "type": "function"
    },
    {
      "inputs": [
        {
          "internalType": "bytes32",
          "name": "role",
          "type": "bytes32"
        },
        {
          "internalType": "address",
          "name": "callerConfirmation",
          "type": "address"
        }
      ],
      "name": "renounceRole",
      "outputs": [],
      "stateMutability": "nonpayable",
      "type": "function"
    },
    {
      "inputs": [
        {
          "internalType": "bytes32",
          "name": "role",
          "type": "bytes32"
        },
        {
          "internalType": "address",
          "name": "account",
          "type": "address"
        }
      ],
      "name": "revokeRole",
      "outputs": [],
      "stateMutability": "nonpayable",
      "type": "function"
    },
    {
      "inputs": [
        {
          "internalType": "address",
          "name": "from",
          "type": "address"
        },
        {
          "internalType": "address",
          "name": "to",
          "type": "address"
        },
        {
          "internalType": "uint256",
          "name": "tokenId",
          "type": "uint256"
        }
      ],
      "name": "safeTransferFrom",
      "outputs": [],
      "stateMutability": "nonpayable",
      "type": "function"
    },
    {
      "inputs": [
        {
          "internalType": "address",
          "name": "from",
          "type": "address"
        },
        {
          "internalType": "address",
          "name": "to",
          "type": "address"
        },
        {
          "internalType": "uint256",
          "name": "tokenId",
          "type": "uint256"
        },
        {
          "internalType": "bytes",
          "name": "data",
          "type": "bytes"
        }
      ],
      "name": "safeTransferFrom",
      "outputs": [],
      "stateMutability": "nonpayable",
      "type": "function"
    },
    {
      "inputs": [
        {
          "internalType": "address",
          "name": "operator",
          "type": "address"
        },
        {
          "internalType": "bool",
          "name": "approved",
          "type": "bool"
        }
      ],
      "name": "setApprovalForAll",
      "outputs": [],
      "stateMutability": "nonpayable",
      "type": "function"
    },
    {
      "inputs": [
        {
          "internalType": "bool",
          "name": "enabled",
          "type": "bool"
        }
      ],
      "name": "setMintEnabled",
      "outputs": [],
      "stateMutability": "nonpayable",
      "type": "function"
    },
    {
      "inputs": [
        {
          "internalType": "bytes4",
          "name": "interfaceId",
          "type": "bytes4"
        }
      ],
      "name": "supportsInterface",
      "outputs": [
        {
          "internalType": "bool",
          "name": "",
          "type": "bool"
        }
      ],
      "stateMutability": "view",
      "type": "function"
    },
    {
      "inputs": [],
      "name": "symbol",
      "outputs": [
        {
          "internalType": "string",
          "name": "",
          "type": "string"
        }
      ],
      "stateMutability": "view",
      "type": "function"
    },
    {
      "inputs": [
        {
          "internalType": "uint256",
          "name": "index",
          "type": "uint256"
        }
      ],
      "name": "tokenByIndex",
      "outputs": [
        {
          "internalType": "uint256",
          "name": "",
          "type": "uint256"
        }
      ],
      "stateMutability": "view",
      "type": "function"
    },
    {
      "inputs": [
        {
          "internalType": "address",
          "name": "owner",
          "type": "address"
        },
        {
          "internalType": "uint256",
          "name": "index",
          "type": "uint256"
        }
      ],
      "name": "tokenOfOwnerByIndex",
      "outputs": [
        {
          "internalType": "uint256",
          "name": "",
          "type": "uint256"
        }
      ],
      "stateMutability": "view",
      "type": "function"
    },
    {
      "inputs": [
        {
          "internalType": "uint256",
          "name": "tokenId",
          "type": "uint256"
        }
      ],
      "name": "tokenURI",
      "outputs": [
        {
          "internalType": "string",
          "name": "",
          "type": "string"
        }
      ],
      "stateMutability": "view",
      "type": "function"
    },
    {
      "inputs": [],
      "name": "totalSupply",
      "outputs": [
        {
          "internalType": "uint256",
          "name": "",
          "type": "uint256"
        }
      ],
      "stateMutability": "view",
      "type": "function"
    },
    {
      "inputs": [
        {
          "internalType": "address",
          "name": "from",
          "type": "address"
        },
        {
          "internalType": "address",
          "name": "to",
          "type": "address"
        },
        {
          "internalType": "uint256",
          "name": "tokenId",
          "type": "uint256"
        }
      ],
      "name": "transferFrom",
      "outputs": [],
      "stateMutability": "nonpayable",
      "type": "function"
    },
    {
      "inputs": [
        {
          "internalType": "address",
          "name": "newOwner",
          "type": "address"
        }
      ],
      "name": "transferOwnership",
      "outputs": [],
      "stateMutability": "nonpayable",
      "type": "function"
    }
  ],
  "bytecode": "0x608060405234801561001057600080fd5b50336040518060400160405280600681526020017f41616172746f00000000000000000000000000000000000000000000000000008152506040518060400160405280600681526020017f41414152544f0000000000000000000000000000000000000000000000000000815250816000908161008d919061060e565b50806001908161009d919061060e565b505050600073ffffffffffffffffffffffffffffffffffffffff168173ffffffffffffffffffffffffffffffffffffffff16036101125760006040517f1e4fbdf70000000000000000000000000000000000000000000000000000000081526004016101099190610721565b60405180910390fd5b6101218161018760201b60201c565b506101356000801b3361024d60201b60201c565b506101667f9f2df0fed2c77648de5860a4cc508cd0818c85b8b8a1ab4ceeef8d981c8956a63361024d60201b60201c565b506001600e60006101000a81548160ff02191690831515021790555061073c565b6000600c60009054906101000a900473ffffffffffffffffffffffffffffffffffffffff16905081600c60006101000a81548173ffffffffffffffffffffffffffffffffffffffff021916908373ffffffffffffffffffffffffffffffffffffffff1602179055508173ffffffffffffffffffffffffffffffffffffffff168173ffffffffffffffffffffffffffffffffffffffff167f8be0079c531659141344cd1fd0a4f28419497f9722a3daafe3b4186f6b6457e060405160405180910390a35050565b600061025f838361034b60201b60201c565b610340576001600b600085815260200190815260200160002060000160008473ffffffffffffffffffffffffffffffffffffffff1673ffffffffffffffffffffffffffffffffffffffff16815260200190815260200160002060006101000a81548160ff0219169083151502179055506102dd6103b660201b60201c565b73ffffffffffffffffffffffffffffffffffffffff168273ffffffffffffffffffffffffffffffffffffffff16847f2f8788117e7eff1d82e926ec794901d17c78024a50270940304540a733656f0d60405160405180910390a460019050610345565b600090505b92915050565b6000600b600084815260200190815260200160002060000160008373ffffffffffffffffffffffffffffffffffffffff1673ffffffffffffffffffffffffffffffffffffffff16815260200190815260200160002060009054906101000a900460ff16905092915050565b600033905090565b600081519050919050565b7f4e487b7100000000000000000000000000000000000000000000000000000000600052604160045260246000fd5b7f4e487b7100000000000000000000000000000000000000000000000000000000600052602260045260246000fd5b6000600282049050600182168061043f57607f821691505b602082108103610452576104516103f8565b5b50919050565b60008190508160005260206000209050919050565b60006020601f8301049050919050565b600082821b905092915050565b6000600883026104ba7fffffffffffffffffffffffffffffffffffffffffffffffffffffffffffffffff8261047d565b6104c4868361047d565b95508019841693508086168417925050509392505050565b6000819050919050565b6000819050919050565b600061050b610506610501846104dc565b6104e6565b6104dc565b9050919050565b6000819050919050565b610525836104f0565b61053961053182610512565b84845461048a565b825550505050565b600090565b61054e610541565b61055981848461051c565b505050565b5b8181101561057d57610572600082610546565b60018101905061055f565b5050565b601f8211156105c25761059381610458565b61059c8461046d565b810160208510156105ab578190505b6105bf6105b78561046d565b83018261055e565b50505b505050565b600082821c905092915050565b60006105e5600019846008026105c7565b1980831691505092915050565b60006105fe83836105d4565b9150826002028217905092915050565b610617826103be565b67ffffffffffffffff8111156106305761062f6103c9565b5b61063a8254610427565b610645828285610581565b600060209050601f8311600181146106785760008415610666578287015190505b61067085826105f2565b8655506106d8565b601f19841661068686610458565b60005b828110156106ae57848901518255600182019150602085019450602081019050610689565b868310156106cb57848901516106c7601f8916826105d4565b8355505b6001600288020188555050505b505050505050565b600073ffffffffffffffffffffffffffffffffffffffff82169050919050565b600061070b826106e0565b9050919050565b61071b81610700565b82525050565b60006020820190506107366000830184610712565b92915050565b6136208061074b6000396000f3fe608060405234801561001057600080fd5b50600436106101cf5760003560e01c80636352211e11610104578063a22cb465116100a2578063d547741f11610071578063d547741f1461053e578063e985e9c51461055a578063f2fde38b1461058a578063f46a04eb146105a6576101cf565b8063a22cb465146104b8578063b88d4fde146104d4578063c87b56dd146104f0578063d539139314610520576101cf565b80638da5cb5b116100de5780638da5cb5b1461042e57806391d148541461044c57806395d89b411461047c578063a217fddf1461049a576101cf565b80636352211e146103c457806370a08231146103f4578063715018a614610424576101cf565b8063248a9ca31161017157806336568abe1161014b57806336568abe1461034057806342842e0e1461035c57806342966c68146103785780634f6ccce714610394576101cf565b8063248a9ca3146102c45780632f2ff15d146102f45780632f745c5914610310576101cf565b8063095ea7b3116101ad578063095ea7b31461025257806318160ddd1461026e578063227b93761461028c57806323b872dd146102a8576101cf565b806301ffc9a7146101d457806306fdde0314610204578063081812fc14610222575b600080fd5b6101ee60048036038101906101e99190612857565b6105c2565b6040516101fb919061289f565b60405180910390f35b61020c6105d4565b604051610219919061294a565b60405180910390f35b61023c600480360381019061023791906129a2565b610666565b6040516102499190612a10565b60405180910390f35b61026c60048036038101906102679190612a57565b610682565b005b610276610698565b6040516102839190612aa6565b60405180910390f35b6102a660048036038101906102a19190612bf6565b6106a5565b005b6102c260048036038101906102bd9190612c52565b61075c565b005b6102de60048036038101906102d99190612cdb565b61085e565b6040516102eb9190612d17565b60405180910390f35b61030e60048036038101906103099190612d32565b61087e565b005b61032a60048036038101906103259190612a57565b6108a0565b6040516103379190612aa6565b60405180910390f35b61035a60048036038101906103559190612d32565b610949565b005b61037660048036038101906103719190612c52565b6109c4565b005b610392600480360381019061038d91906129a2565b6109e4565b005b6103ae60048036038101906103a991906129a2565b6109fb565b6040516103bb9190612aa6565b60405180910390f35b6103de60048036038101906103d991906129a2565b610a71565b6040516103eb9190612a10565b60405180910390f35b61040e60048036038101906104099190612d72565b610a83565b60405161041b9190612aa6565b60405180910390f35b61042c610b3d565b005b610436610b51565b6040516104439190612a10565b60405180910390f35b61046660048036038101906104619190612d32565b610b7b565b604051610473919061289f565b60405180910390f35b610484610be6565b604051610491919061294a565b60405180910390f35b6104a2610c78565b6040516104af9190612d17565b60405180910390f35b6104d260048036038101906104cd9190612dcb565b610c7f565b005b6104ee60048036038101906104e99190612eac565b610c95565b005b61050a600480360381019061050591906129a2565b610cba565b604051610517919061294a565b60405180910390f35b610528610ccc565b6040516105359190612d17565b60405180910390f35b61055860048036038101906105539190612d32565b610cf0565b005b610574600480360381019061056f9190612f2f565b610d12565b604051610581919061289f565b60405180910390f35b6105a4600480360381019061059f9190612d72565b610da6565b005b6105c060048036038101906105bb9190612f6f565b610e2c565b005b60006105cd82610e57565b9050919050565b6060600080546105e390612fcb565b80601f016020809104026020016040519081016040528092919081815260200182805461060f90612fcb565b801561065c5780601f106106315761010080835404028352916020019161065c565b820191906000526020600020905b81548152906001019060200180831161063f57829003601f168201915b5050505050905090565b600061067182610ed1565b5061067b82610f59565b9050919050565b610694828261068f610f96565b610f9e565b5050565b6000600880549050905090565b600e60009054906101000a900460ff16610723576106e37f9f2df0fed2c77648de5860a4cc508cd0818c85b8b8a1ab4ceeef8d981c8956a633610b7b565b610722576040517f08c379a000000000000000000000000000000000000000000000000000000000815260040161071990613048565b60405180910390fd5b5b61074d7f9f2df0fed2c77648de5860a4cc508cd0818c85b8b8a1ab4ceeef8d981c8956a633610fb0565b5061075882826110a2565b5050565b600073ffffffffffffffffffffffffffffffffffffffff168273ffffffffffffffffffffffffffffffffffffffff16036107ce5760006040517f64a0ae920000000000000000000000000000000000000000000000000000000081526004016107c59190612a10565b60405180910390fd5b60006107e283836107dd610f96565b611150565b90508373ffffffffffffffffffffffffffffffffffffffff168173ffffffffffffffffffffffffffffffffffffffff1614610858578382826040517f64283d7b00000000000000000000000000000000000000000000000000000000815260040161084f93929190613068565b60405180910390fd5b50505050565b6000600b6000838152602001908152602001600020600101549050919050565b6108878261085e565b61089081611166565b61089a8383610fb0565b50505050565b60006108ab83610a83565b82106108f05782826040517fa57d13dc0000000000000000000000000000000000000000000000000000000081526004016108e792919061309f565b60405180910390fd5b600660008473ffffffffffffffffffffffffffffffffffffffff1673ffffffffffffffffffffffffffffffffffffffff168152602001908152602001600020600083815260200190815260200160002054905092915050565b610951610f96565b73ffffffffffffffffffffffffffffffffffffffff168173ffffffffffffffffffffffffffffffffffffffff16146109b5576040517f6697b23200000000000000000000000000000000000000000000000000000000815260040160405180910390fd5b6109bf828261117a565b505050565b6109df83838360405180602001604052806000815250610c95565b505050565b6109f76000826109f2610f96565b611150565b5050565b6000610a05610698565b8210610a4b576000826040517fa57d13dc000000000000000000000000000000000000000000000000000000008152600401610a4292919061309f565b60405180910390fd5b60088281548110610a5f57610a5e6130c8565b5b90600052602060002001549050919050565b6000610a7c82610ed1565b9050919050565b60008073ffffffffffffffffffffffffffffffffffffffff168273ffffffffffffffffffffffffffffffffffffffff1603610af65760006040517f89c62b64000000000000000000000000000000000000000000000000000000008152600401610aed9190612a10565b60405180910390fd5b600360008373ffffffffffffffffffffffffffffffffffffffff1673ffffffffffffffffffffffffffffffffffffffff168152602001908152602001600020549050919050565b610b4561126d565b610b4f60006112f4565b565b6000600c60009054906101000a900473ffffffffffffffffffffffffffffffffffffffff16905090565b6000600b600084815260200190815260200160002060000160008373ffffffffffffffffffffffffffffffffffffffff1673ffffffffffffffffffffffffffffffffffffffff16815260200190815260200160002060009054906101000a900460ff16905092915050565b606060018054610bf590612fcb565b80601f0160208091040260200160405190810160405280929190818152602001828054610c2190612fcb565b8015610c6e5780601f10610c4357610100808354040283529160200191610c6e565b820191906000526020600020905b815481529060010190602001808311610c5157829003601f168201915b5050505050905090565b6000801b81565b610c91610c8a610f96565b83836113ba565b5050565b610ca084848461075c565b610cb4610cab610f96565b85858585611529565b50505050565b6060610cc5826116da565b9050919050565b7f9f2df0fed2c77648de5860a4cc508cd0818c85b8b8a1ab4ceeef8d981c8956a681565b610cf98261085e565b610d0281611166565b610d0c838361117a565b50505050565b6000600560008473ffffffffffffffffffffffffffffffffffffffff1673ffffffffffffffffffffffffffffffffffffffff16815260200190815260200160002060008373ffffffffffffffffffffffffffffffffffffffff1673ffffffffffffffffffffffffffffffffffffffff16815260200190815260200160002060009054906101000a900460ff16905092915050565b610dae61126d565b600073ffffffffffffffffffffffffffffffffffffffff168173ffffffffffffffffffffffffffffffffffffffff1603610e205760006040517f1e4fbdf7000000000000000000000000000000000000000000000000000000008152600401610e179190612a10565b60405180910390fd5b610e29816112f4565b50565b6000801b610e3981611166565b81600e60006101000a81548160ff0219169083151502179055505050565b60007f7965db0b000000000000000000000000000000000000000000000000000000007bffffffffffffffffffffffffffffffffffffffffffffffffffffffff1916827bffffffffffffffffffffffffffffffffffffffffffffffffffffffff19161480610eca5750610ec9826117ed565b5b9050919050565b600080610edd8361184e565b9050600073ffffffffffffffffffffffffffffffffffffffff168173ffffffffffffffffffffffffffffffffffffffff1603610f5057826040517f7e273289000000000000000000000000000000000000000000000000000000008152600401610f479190612aa6565b60405180910390fd5b80915050919050565b60006004600083815260200190815260200160002060009054906101000a900473ffffffffffffffffffffffffffffffffffffffff169050919050565b600033905090565b610fab838383600161188b565b505050565b6000610fbc8383610b7b565b611097576001600b600085815260200190815260200160002060000160008473ffffffffffffffffffffffffffffffffffffffff1673ffffffffffffffffffffffffffffffffffffffff16815260200190815260200160002060006101000a81548160ff021916908315150217905550611034610f96565b73ffffffffffffffffffffffffffffffffffffffff168273ffffffffffffffffffffffffffffffffffffffff16847f2f8788117e7eff1d82e926ec794901d17c78024a50270940304540a733656f0d60405160405180910390a46001905061109c565b600090505b92915050565b7f9f2df0fed2c77648de5860a4cc508cd0818c85b8b8a1ab4ceeef8d981c8956a66110cc81611166565b6000600d60008154809291906110e190613126565b9190505590506110f18482611a50565b6110fb8184611a6e565b808473ffffffffffffffffffffffffffffffffffffffff167f85a66b9141978db9980f7e0ce3b468cebf4f7999f32b23091c5c03e798b1ba7a85604051611142919061294a565b60405180910390a350505050565b600061115d848484611aca565b90509392505050565b61117781611172610f96565b611be7565b50565b60006111868383610b7b565b15611262576000600b600085815260200190815260200160002060000160008473ffffffffffffffffffffffffffffffffffffffff1673ffffffffffffffffffffffffffffffffffffffff16815260200190815260200160002060006101000a81548160ff0219169083151502179055506111ff610f96565b73ffffffffffffffffffffffffffffffffffffffff168273ffffffffffffffffffffffffffffffffffffffff16847ff6391f5c32d9c69d2a47ea670b442974b53935d1edc7fd64eb21e047a839171b60405160405180910390a460019050611267565b600090505b92915050565b611275610f96565b73ffffffffffffffffffffffffffffffffffffffff16611293610b51565b73ffffffffffffffffffffffffffffffffffffffff16146112f2576112b6610f96565b6040517f118cdaa70000000000000000000000000000000000000000000000000000000081526004016112e99190612a10565b60405180910390fd5b565b6000600c60009054906101000a900473ffffffffffffffffffffffffffffffffffffffff16905081600c60006101000a81548173ffffffffffffffffffffffffffffffffffffffff021916908373ffffffffffffffffffffffffffffffffffffffff1602179055508173ffffffffffffffffffffffffffffffffffffffff168173ffffffffffffffffffffffffffffffffffffffff167f8be0079c531659141344cd1fd0a4f28419497f9722a3daafe3b4186f6b6457e060405160405180910390a35050565b600073ffffffffffffffffffffffffffffffffffffffff168273ffffffffffffffffffffffffffffffffffffffff160361142b57816040517f5b08ba180000000000000000000000000000000000000000000000000000000081526004016114229190612a10565b60405180910390fd5b80600560008573ffffffffffffffffffffffffffffffffffffffff1673ffffffffffffffffffffffffffffffffffffffff16815260200190815260200160002060008473ffffffffffffffffffffffffffffffffffffffff1673ffffffffffffffffffffffffffffffffffffffff16815260200190815260200160002060006101000a81548160ff0219169083151502179055508173ffffffffffffffffffffffffffffffffffffffff168373ffffffffffffffffffffffffffffffffffffffff167f17307eab39ab6107e8899845ad3d59bd9653f200f220920489ca2b5937696c318360405161151c919061289f565b60405180910390a3505050565b60008373ffffffffffffffffffffffffffffffffffffffff163b11156116d3578273ffffffffffffffffffffffffffffffffffffffff1663150b7a02868685856040518563ffffffff1660e01b815260040161158894939291906131c3565b6020604051808303816000875af19250505080156115c457506040513d601f19601f820116820180604052508101906115c19190613224565b60015b611648573d80600081146115f4576040519150601f19603f3d011682016040523d82523d6000602084013e6115f9565b606091505b50600081510361164057836040517f64a0ae920000000000000000000000000000000000000000000000000000000081526004016116379190612a10565b60405180910390fd5b805181602001fd5b63150b7a0260e01b7bffffffffffffffffffffffffffffffffffffffffffffffffffffffff1916817bffffffffffffffffffffffffffffffffffffffffffffffffffffffff1916146116d157836040517f64a0ae920000000000000000000000000000000000000000000000000000000081526004016116c89190612a10565b60405180910390fd5b505b5050505050565b60606116e582610ed1565b506000600a6000848152602001908152602001600020805461170690612fcb565b80601f016020809104026020016040519081016040528092919081815260200182805461173290612fcb565b801561177f5780601f106117545761010080835404028352916020019161177f565b820191906000526020600020905b81548152906001019060200180831161176257829003601f168201915b505050505090506000611790611c38565b905060008151036117a55781925050506117e8565b6000825111156117da5780826040516020016117c292919061328d565b604051602081830303815290604052925050506117e8565b6117e384611c4f565b925050505b919050565b6000634906490660e01b7bffffffffffffffffffffffffffffffffffffffffffffffffffffffff1916827bffffffffffffffffffffffffffffffffffffffffffffffffffffffff19161480611847575061184682611cb8565b5b9050919050565b60006002600083815260200190815260200160002060009054906101000a900473ffffffffffffffffffffffffffffffffffffffff169050919050565b80806118c45750600073ffffffffffffffffffffffffffffffffffffffff168273ffffffffffffffffffffffffffffffffffffffff1614155b156119f85760006118d484610ed1565b9050600073ffffffffffffffffffffffffffffffffffffffff168373ffffffffffffffffffffffffffffffffffffffff161415801561193f57508273ffffffffffffffffffffffffffffffffffffffff168173ffffffffffffffffffffffffffffffffffffffff1614155b801561195257506119508184610d12565b155b1561199457826040517fa9fbf51f00000000000000000000000000000000000000000000000000000000815260040161198b9190612a10565b60405180910390fd5b81156119f657838573ffffffffffffffffffffffffffffffffffffffff168273ffffffffffffffffffffffffffffffffffffffff167f8c5be1e5ebec7d5bd14f71427d1e84f3dd0314c0f7b2291e5b200ac8c7c3b92560405160405180910390a45b505b836004600085815260200190815260200160002060006101000a81548173ffffffffffffffffffffffffffffffffffffffff021916908373ffffffffffffffffffffffffffffffffffffffff16021790555050505050565b611a6a828260405180602001604052806000815250611d32565b5050565b80600a60008481526020019081526020016000209081611a8e919061345d565b507ff8e1a15aba9398e019f0b49df1a4fde98ee17ae345cb5f6b5e2c27f5033e8ce782604051611abe9190612aa6565b60405180910390a15050565b600080611ad8858585611d56565b9050600073ffffffffffffffffffffffffffffffffffffffff168173ffffffffffffffffffffffffffffffffffffffff1603611b1c57611b1784611f70565b611b5b565b8473ffffffffffffffffffffffffffffffffffffffff168173ffffffffffffffffffffffffffffffffffffffff1614611b5a57611b598185611fb9565b5b5b600073ffffffffffffffffffffffffffffffffffffffff168573ffffffffffffffffffffffffffffffffffffffff1603611b9d57611b98846120a4565b611bdc565b8473ffffffffffffffffffffffffffffffffffffffff168173ffffffffffffffffffffffffffffffffffffffff1614611bdb57611bda8585612175565b5b5b809150509392505050565b611bf18282610b7b565b611c345780826040517fe2517d3f000000000000000000000000000000000000000000000000000000008152600401611c2b92919061352f565b60405180910390fd5b5050565b606060405180602001604052806000815250905090565b6060611c5a82610ed1565b506000611c65611c38565b90506000815111611c855760405180602001604052806000815250611cb0565b80611c8f84612200565b604051602001611ca092919061328d565b6040516020818303038152906040525b915050919050565b60007f780e9d63000000000000000000000000000000000000000000000000000000007bffffffffffffffffffffffffffffffffffffffffffffffffffffffff1916827bffffffffffffffffffffffffffffffffffffffffffffffffffffffff19161480611d2b5750611d2a826122ce565b5b9050919050565b611d3c83836123b0565b611d51611d47610f96565b6000858585611529565b505050565b600080611d628461184e565b9050600073ffffffffffffffffffffffffffffffffffffffff168373ffffffffffffffffffffffffffffffffffffffff1614611da457611da38184866124a9565b5b600073ffffffffffffffffffffffffffffffffffffffff168173ffffffffffffffffffffffffffffffffffffffff1614611e3557611de660008560008061188b565b6001600360008373ffffffffffffffffffffffffffffffffffffffff1673ffffffffffffffffffffffffffffffffffffffff168152602001908152602001600020600082825403925050819055505b600073ffffffffffffffffffffffffffffffffffffffff168573ffffffffffffffffffffffffffffffffffffffff1614611eb8576001600360008773ffffffffffffffffffffffffffffffffffffffff1673ffffffffffffffffffffffffffffffffffffffff168152602001908152602001600020600082825401925050819055505b846002600086815260200190815260200160002060006101000a81548173ffffffffffffffffffffffffffffffffffffffff021916908373ffffffffffffffffffffffffffffffffffffffff160217905550838573ffffffffffffffffffffffffffffffffffffffff168273ffffffffffffffffffffffffffffffffffffffff167fddf252ad1be2c89b69c2b068fc378daa952ba7f163c4a11628f55a4df523b3ef60405160405180910390a4809150509392505050565b6008805490506009600083815260200190815260200160002081905550600881908060018154018082558091505060019003906000526020600020016000909190919091505550565b6000611fc483610a83565b90506000600760008481526020019081526020016000205490506000600660008673ffffffffffffffffffffffffffffffffffffffff1673ffffffffffffffffffffffffffffffffffffffff16815260200190815260200160002090508282146120705760008160008581526020019081526020016000205490508082600085815260200190815260200160002081905550826007600083815260200190815260200160002081905550505b6007600085815260200190815260200160002060009055806000848152602001908152602001600020600090555050505050565b600060016008805490506120b89190613558565b90506000600960008481526020019081526020016000205490506000600883815481106120e8576120e76130c8565b5b90600052602060002001549050806008838154811061210a576121096130c8565b5b9060005260206000200181905550816009600083815260200190815260200160002081905550600960008581526020019081526020016000206000905560088054806121595761215861358c565b5b6001900381819060005260206000200160009055905550505050565b6000600161218284610a83565b61218c9190613558565b905081600660008573ffffffffffffffffffffffffffffffffffffffff1673ffffffffffffffffffffffffffffffffffffffff168152602001908152602001600020600083815260200190815260200160002081905550806007600084815260200190815260200160002081905550505050565b60606000600161220f8461256d565b01905060008167ffffffffffffffff81111561222e5761222d612acb565b5b6040519080825280601f01601f1916602001820160405280156122605781602001600182028036833780820191505090505b509050600082602001820190505b6001156122c3578080600190039150507f3031323334353637383961626364656600000000000000000000000000000000600a86061a8153600a85816122b7576122b66135bb565b5b0494506000850361226e575b819350505050919050565b60007f80ac58cd000000000000000000000000000000000000000000000000000000007bffffffffffffffffffffffffffffffffffffffffffffffffffffffff1916827bffffffffffffffffffffffffffffffffffffffffffffffffffffffff1916148061239957507f5b5e139f000000000000000000000000000000000000000000000000000000007bffffffffffffffffffffffffffffffffffffffffffffffffffffffff1916827bffffffffffffffffffffffffffffffffffffffffffffffffffffffff1916145b806123a957506123a8826126c0565b5b9050919050565b600073ffffffffffffffffffffffffffffffffffffffff168273ffffffffffffffffffffffffffffffffffffffff16036124225760006040517f64a0ae920000000000000000000000000000000000000000000000000000000081526004016124199190612a10565b60405180910390fd5b600061243083836000611150565b9050600073ffffffffffffffffffffffffffffffffffffffff168173ffffffffffffffffffffffffffffffffffffffff16146124a45760006040517f73c6ac6e00000000000000000000000000000000000000000000000000000000815260040161249b9190612a10565b60405180910390fd5b505050565b6124b483838361272a565b61256857600073ffffffffffffffffffffffffffffffffffffffff168373ffffffffffffffffffffffffffffffffffffffff160361252957806040517f7e2732890000000000000000000000000000000000000000000000000000000081526004016125209190612aa6565b60405180910390fd5b81816040517f177e802f00000000000000000000000000000000000000000000000000000000815260040161255f92919061309f565b60405180910390fd5b505050565b600080600090507a184f03e93ff9f4daa797ed6e38ed64bf6a1f01000000000000000083106125cb577a184f03e93ff9f4daa797ed6e38ed64bf6a1f01000000000000000083816125c1576125c06135bb565b5b0492506040810190505b6d04ee2d6d415b85acef81000000008310612608576d04ee2d6d415b85acef810000000083816125fe576125fd6135bb565b5b0492506020810190505b662386f26fc10000831061263757662386f26fc10000838161262d5761262c6135bb565b5b0492506010810190505b6305f5e1008310612660576305f5e1008381612656576126556135bb565b5b0492506008810190505b612710831061268557612710838161267b5761267a6135bb565b5b0492506004810190505b606483106126a8576064838161269e5761269d6135bb565b5b0492506002810190505b600a83106126b7576001810190505b80915050919050565b60007f01ffc9a7000000000000000000000000000000000000000000000000000000007bffffffffffffffffffffffffffffffffffffffffffffffffffffffff1916827bffffffffffffffffffffffffffffffffffffffffffffffffffffffff1916149050919050565b60008073ffffffffffffffffffffffffffffffffffffffff168373ffffffffffffffffffffffffffffffffffffffff16141580156127e257508273ffffffffffffffffffffffffffffffffffffffff168473ffffffffffffffffffffffffffffffffffffffff1614806127a357506127a28484610d12565b5b806127e157508273ffffffffffffffffffffffffffffffffffffffff166127c983610f59565b73ffffffffffffffffffffffffffffffffffffffff16145b5b90509392505050565b6000604051905090565b600080fd5b600080fd5b60007fffffffff0000000000000000000000000000000000000000000000000000000082169050919050565b612834816127ff565b811461283f57600080fd5b50565b6000813590506128518161282b565b92915050565b60006020828403121561286d5761286c6127f5565b5b600061287b84828501612842565b91505092915050565b60008115159050919050565b61289981612884565b82525050565b60006020820190506128b46000830184612890565b92915050565b600081519050919050565b600082825260208201905092915050565b60005b838110156128f45780820151818401526020810190506128d9565b60008484015250505050565b6000601f19601f8301169050919050565b600061291c826128ba565b61292681856128c5565b93506129368185602086016128d6565b61293f81612900565b840191505092915050565b600060208201905081810360008301526129648184612911565b905092915050565b6000819050919050565b61297f8161296c565b811461298a57600080fd5b50565b60008135905061299c81612976565b92915050565b6000602082840312156129b8576129b76127f5565b5b60006129c68482850161298d565b91505092915050565b600073ffffffffffffffffffffffffffffffffffffffff82169050919050565b60006129fa826129cf565b9050919050565b612a0a816129ef565b82525050565b6000602082019050612a256000830184612a01565b92915050565b612a34816129ef565b8114612a3f57600080fd5b50565b600081359050612a5181612a2b565b92915050565b60008060408385031215612a6e57612a6d6127f5565b5b6000612a7c85828601612a42565b9250506020612a8d8582860161298d565b9150509250929050565b612aa08161296c565b82525050565b6000602082019050612abb6000830184612a97565b92915050565b600080fd5b600080fd5b7f4e487b7100000000000000000000000000000000000000000000000000000000600052604160045260246000fd5b612b0382612900565b810181811067ffffffffffffffff82111715612b2257612b21612acb565b5b80604052505050565b6000612b356127eb565b9050612b418282612afa565b919050565b600067ffffffffffffffff821115612b6157612b60612acb565b5b612b6a82612900565b9050602081019050919050565b82818337600083830152505050565b6000612b99612b9484612b46565b612b2b565b905082815260208101848484011115612bb557612bb4612ac6565b5b612bc0848285612b77565b509392505050565b600082601f830112612bdd57612bdc612ac1565b5b8135612bed848260208601612b86565b91505092915050565b60008060408385031215612c0d57612c0c6127f5565b5b6000612c1b85828601612a42565b925050602083013567ffffffffffffffff811115612c3c57612c3b6127fa565b5b612c4885828601612bc8565b9150509250929050565b600080600060608486031215612c6b57612c6a6127f5565b5b6000612c7986828701612a42565b9350506020612c8a86828701612a42565b9250506040612c9b8682870161298d565b9150509250925092565b6000819050919050565b612cb881612ca5565b8114612cc357600080fd5b50565b600081359050612cd581612caf565b92915050565b600060208284031215612cf157612cf06127f5565b5b6000612cff84828501612cc6565b91505092915050565b612d1181612ca5565b82525050565b6000602082019050612d2c6000830184612d08565b92915050565b60008060408385031215612d4957612d486127f5565b5b6000612d5785828601612cc6565b9250506020612d6885828601612a42565b9150509250929050565b600060208284031215612d8857612d876127f5565b5b6000612d9684828501612a42565b91505092915050565b612da881612884565b8114612db357600080fd5b50565b600081359050612dc581612d9f565b92915050565b60008060408385031215612de257612de16127f5565b5b6000612df085828601612a42565b9250506020612e0185828601612db6565b9150509250929050565b600067ffffffffffffffff821115612e2657612e25612acb565b5b612e2f82612900565b9050602081019050919050565b6000612e4f612e4a84612e0b565b612b2b565b905082815260208101848484011115612e6b57612e6a612ac6565b5b612e76848285612b77565b509392505050565b600082601f830112612e9357612e92612ac1565b5b8135612ea3848260208601612e3c565b91505092915050565b60008060008060808587031215612ec657612ec56127f5565b5b6000612ed487828801612a42565b9450506020612ee587828801612a42565b9350506040612ef68782880161298d565b925050606085013567ffffffffffffffff811115612f1757612f166127fa565b5b612f2387828801612e7e565b91505092959194509250565b60008060408385031215612f4657612f456127f5565b5b6000612f5485828601612a42565b9250506020612f6585828601612a42565b9150509250929050565b600060208284031215612f8557612f846127f5565b5b6000612f9384828501612db6565b91505092915050565b7f4e487b7100000000000000000000000000000000000000000000000000000000600052602260045260246000fd5b60006002820490506001821680612fe357607f821691505b602082108103612ff657612ff5612f9c565b5b50919050565b7f43616c6c6572206973206e6f742061206d696e74657200000000000000000000600082015250565b60006130326016836128c5565b915061303d82612ffc565b602082019050919050565b6000602082019050818103600083015261306181613025565b9050919050565b600060608201905061307d6000830186612a01565b61308a6020830185612a97565b6130976040830184612a01565b949350505050565b60006040820190506130b46000830185612a01565b6130c16020830184612a97565b9392505050565b7f4e487b7100000000000000000000000000000000000000000000000000000000600052603260045260246000fd5b7f4e487b7100000000000000000000000000000000000000000000000000000000600052601160045260246000fd5b60006131318261296c565b91507fffffffffffffffffffffffffffffffffffffffffffffffffffffffffffffffff8203613163576131626130f7565b5b600182019050919050565b600081519050919050565b600082825260208201905092915050565b60006131958261316e565b61319f8185613179565b93506131af8185602086016128d6565b6131b881612900565b840191505092915050565b60006080820190506131d86000830187612a01565b6131e56020830186612a01565b6131f26040830185612a97565b8181036060830152613204818461318a565b905095945050505050565b60008151905061321e8161282b565b92915050565b60006020828403121561323a576132396127f5565b5b60006132488482850161320f565b91505092915050565b600081905092915050565b6000613267826128ba565b6132718185613251565b93506132818185602086016128d6565b80840191505092915050565b6000613299828561325c565b91506132a5828461325c565b91508190509392505050565b60008190508160005260206000209050919050565b60006020601f8301049050919050565b600082821b905092915050565b6000600883026133137fffffffffffffffffffffffffffffffffffffffffffffffffffffffffffffffff826132d6565b61331d86836132d6565b95508019841693508086168417925050509392505050565b6000819050919050565b600061335a6133556133508461296c565b613335565b61296c565b9050919050565b6000819050919050565b6133748361333f565b61338861338082613361565b8484546132e3565b825550505050565b600090565b61339d613390565b6133a881848461336b565b505050565b5b818110156133cc576133c1600082613395565b6001810190506133ae565b5050565b601f821115613411576133e2816132b1565b6133eb846132c6565b810160208510156133fa578190505b61340e613406856132c6565b8301826133ad565b50505b505050565b600082821c905092915050565b600061343460001984600802613416565b1980831691505092915050565b600061344d8383613423565b9150826002028217905092915050565b613466826128ba565b67ffffffffffffffff81111561347f5761347e612acb565b5b6134898254612fcb565b6134948282856133d0565b600060209050601f8311600181146134c757600084156134b5578287015190505b6134bf8582613441565b865550613527565b601f1984166134d5866132b1565b60005b828110156134fd578489015182556001820191506020850194506020810190506134d8565b8683101561351a5784890151613516601f891682613423565b8355505b6001600288020188555050505b505050505050565b60006040820190506135446000830185612a01565b6135516020830184612d08565b9392505050565b60006135638261296c565b915061356e8361296c565b9250828203905081811115613586576135856130f7565b5b92915050565b7f4e487b7100000000000000000000000000000000000000000000000000000000600052603160045260246000fd5b7f4e487b7100000000000000000000000000000000000000000000000000000000600052601260045260246000fdfea2646970667358221220fcf6ae6a6405c05ab8ac29741ba640d1a5759311197bc6c9b5260035bd4c6edc64736f6c634300081c0033",
  "linkReferences": {},
  "deployedLinkReferences": {}
}