{
  "_format": "hh-sol-artifact-1",
  "contractName": "AaartoNFTV4",
  "sourceName": "contracts/AaartoNFTV4.sol",
  "abi": [
    {
      "inputs": [
        {
          "internalType": "uint256",
          "name": "_platformFee",
          "type": "uint256"
        }
      ],
      "stateMutability": "nonpayable",
      "type": "constructor"
    },
    {
      "inputs": [],
      "name": "AccessControlBadConfirmation",
      "type": "error"
    },
    {
      "inputs": [
        {
          "internalType": "address",
          "name": "account",
          "type": "address"
        },
        {
          "internalType": "bytes32",
          "name": "neededRole",
          "type": "bytes32"
        }
      ],
      "name": "AccessControlUnauthorizedAccount",
      "type": "error"
    },
    {
      "inputs": [],
      "name": "ERC721EnumerableForbiddenBatchMint",
      "type": "error"
    },
    {
      "inputs": [
        {
          "internalType": "address",
          "name": "sender",
          "type": "address"
        },
        {
          "internalType": "uint256",
          "name": "tokenId",
          "type": "uint256"
        },
        {
          "internalType": "address",
          "name": "owner",
          "type": "address"
        }
      ],
      "name": "ERC721IncorrectOwner",
      "type": "error"
    },
    {
      "inputs": [
        {
          "internalType": "address",
          "name": "operator",
          "type": "address"
        },
        {
          "internalType": "uint256",
          "name": "tokenId",
          "type": "uint256"
        }
      ],
      "name": "ERC721InsufficientApproval",
      "type": "error"
    },
    {
      "inputs": [
        {
          "internalType": "address",
          "name": "approver",
          "type": "address"
        }
      ],
      "name": "ERC721InvalidApprover",
      "type": "error"
    },
    {
      "inputs": [
        {
          "internalType": "address",
          "name": "operator",
          "type": "address"
        }
      ],
      "name": "ERC721InvalidOperator",
      "type": "error"
    },
    {
      "inputs": [
        {
          "internalType": "address",
          "name": "owner",
          "type": "address"
        }
      ],
      "name": "ERC721InvalidOwner",
      "type": "error"
    },
    {
      "inputs": [
        {
          "internalType": "address",
          "name": "receiver",
          "type": "address"
        }
      ],
      "name": "ERC721InvalidReceiver",
      "type": "error"
    },
    {
      "inputs": [
        {
          "internalType": "address",
          "name": "sender",
          "type": "address"
        }
      ],
      "name": "ERC721InvalidSender",
      "type": "error"
    },
    {
      "inputs": [
        {
          "internalType": "uint256",
          "name": "tokenId",
          "type": "uint256"
        }
      ],
      "name": "ERC721NonexistentToken",
      "type": "error"
    },
    {
      "inputs": [
        {
          "internalType": "address",
          "name": "owner",
          "type": "address"
        },
        {
          "internalType": "uint256",
          "name": "index",
          "type": "uint256"
        }
      ],
      "name": "ERC721OutOfBoundsIndex",
      "type": "error"
    },
    {
      "inputs": [
        {
          "internalType": "address",
          "name": "owner",
          "type": "address"
        }
      ],
      "name": "OwnableInvalidOwner",
      "type": "error"
    },
    {
      "inputs": [
        {
          "internalType": "address",
          "name": "account",
          "type": "address"
        }
      ],
      "name": "OwnableUnauthorizedAccount",
      "type": "error"
    },
    {
      "anonymous": false,
      "inputs": [
        {
          "indexed": true,
          "internalType": "address",
          "name": "owner",
          "type": "address"
        },
        {
          "indexed": true,
          "internalType": "address",
          "name": "approved",
          "type": "address"
        },
        {
          "indexed": true,
          "internalType": "uint256",
          "name": "tokenId",
          "type": "uint256"
        }
      ],
      "name": "Approval",
      "type": "event"
    },
    {
      "anonymous": false,
      "inputs": [
        {
          "indexed": true,
          "internalType": "address",
          "name": "owner",
          "type": "address"
        },
        {
          "indexed": true,
          "internalType": "address",
          "name": "operator",
          "type": "address"
        },
        {
          "indexed": false,
          "internalType": "bool",
          "name": "approved",
          "type": "bool"
        }
      ],
      "name": "ApprovalForAll",
      "type": "event"
    },
    {
      "anonymous": false,
      "inputs": [
        {
          "indexed": false,
          "internalType": "uint256",
          "name": "_fromTokenId",
          "type": "uint256"
        },
        {
          "indexed": false,
          "internalType": "uint256",
          "name": "_toTokenId",
          "type": "uint256"
        }
      ],
      "name": "BatchMetadataUpdate",
      "type": "event"
    },
    {
      "anonymous": false,
      "inputs": [
        {
          "indexed": false,
          "internalType": "uint256",
          "name": "_tokenId",
          "type": "uint256"
        }
      ],
      "name": "MetadataUpdate",
      "type": "event"
    },
    {
      "anonymous": false,
      "inputs": [
        {
          "indexed": true,
          "internalType": "address",
          "name": "to",
          "type": "address"
        },
        {
          "indexed": true,
          "internalType": "uint256",
          "name": "tokenID",
          "type": "uint256"
        },
        {
          "indexed": false,
          "internalType": "string",
          "name": "tokenURI",
          "type": "string"
        }
      ],
      "name": "Mint",
      "type": "event"
    },
    {
      "anonymous": false,
      "inputs": [
        {
          "indexed": true,
          "internalType": "address",
          "name": "previousOwner",
          "type": "address"
        },
        {
          "indexed": true,
          "internalType": "address",
          "name": "newOwner",
          "type": "address"
        }
      ],
      "name": "OwnershipTransferred",
      "type": "event"
    },
    {
      "anonymous": false,
      "inputs": [
        {
          "indexed": true,
          "internalType": "bytes32",
          "name": "role",
          "type": "bytes32"
        },
        {
          "indexed": true,
          "internalType": "bytes32",
          "name": "previousAdminRole",
          "type": "bytes32"
        },
        {
          "indexed": true,
          "internalType": "bytes32",
          "name": "newAdminRole",
          "type": "bytes32"
        }
      ],
      "name": "RoleAdminChanged",
      "type": "event"
    },
    {
      "anonymous": false,
      "inputs": [
        {
          "indexed": true,
          "internalType": "bytes32",
          "name": "role",
          "type": "bytes32"
        },
        {
          "indexed": true,
          "internalType": "address",
          "name": "account",
          "type": "address"
        },
        {
          "indexed": true,
          "internalType": "address",
          "name": "sender",
          "type": "address"
        }
      ],
      "name": "RoleGranted",
      "type": "event"
    },
    {
      "anonymous": false,
      "inputs": [
        {
          "indexed": true,
          "internalType": "bytes32",
          "name": "role",
          "type": "bytes32"
        },
        {
          "indexed": true,
          "internalType": "address",
          "name": "account",
          "type": "address"
        },
        {
          "indexed": true,
          "internalType": "address",
          "name": "sender",
          "type": "address"
        }
      ],
      "name": "RoleRevoked",
      "type": "event"
    },
    {
      "anonymous": false,
      "inputs": [
        {
          "indexed": true,
          "internalType": "address",
          "name": "from",
          "type": "address"
        },
        {
          "indexed": true,
          "internalType": "address",
          "name": "to",
          "type": "address"
        },
        {
          "indexed": true,
          "internalType": "uint256",
          "name": "tokenId",
          "type": "uint256"
        }
      ],
      "name": "Transfer",
      "type": "event"
    },
    {
      "inputs": [],
      "name": "DEFAULT_ADMIN_ROLE",
      "outputs": [
        {
          "internalType": "bytes32",
          "name": "",
          "type": "bytes32"
        }
      ],
      "stateMutability": "view",
      "type": "function"
    },
    {
      "inputs": [],
      "name": "MINTER_ROLE",
      "outputs": [
        {
          "internalType": "bytes32",
          "name": "",
          "type": "bytes32"
        }
      ],
      "stateMutability": "view",
      "type": "function"
    },
    {
      "inputs": [
        {
          "internalType": "address",
          "name": "to",
          "type": "address"
        },
        {
          "internalType": "uint256",
          "name": "tokenId",
          "type": "uint256"
        }
      ],
      "name": "approve",
      "outputs": [],
      "stateMutability": "nonpayable",
      "type": "function"
    },
    {
      "inputs": [
        {
          "internalType": "address",
          "name": "owner",
          "type": "address"
        }
      ],
      "name": "balanceOf",
      "outputs": [
        {
          "internalType": "uint256",
          "name": "",
          "type": "uint256"
        }
      ],
      "stateMutability": "view",
      "type": "function"
    },
    {
      "inputs": [
        {
          "internalType": "uint256",
          "name": "tokenId",
          "type": "uint256"
        }
      ],
      "name": "burn",
      "outputs": [],
      "stateMutability": "nonpayable",
      "type": "function"
    },
    {
      "inputs": [],
      "name": "feeRecipient",
      "outputs": [
        {
          "internalType": "address payable",
          "name": "",
          "type": "address"
        }
      ],
      "stateMutability": "view",
      "type": "function"
    },
    {
      "inputs": [
        {
          "internalType": "uint256",
          "name": "tokenId",
          "type": "uint256"
        }
      ],
      "name": "getApproved",
      "outputs": [
        {
          "internalType": "address",
          "name": "",
          "type": "address"
        }
      ],
      "stateMutability": "view",
      "type": "function"
    },
    {
      "inputs": [
        {
          "internalType": "bytes32",
          "name": "role",
          "type": "bytes32"
        }
      ],
      "name": "getRoleAdmin",
      "outputs": [
        {
          "internalType": "bytes32",
          "name": "",
          "type": "bytes32"
        }
      ],
      "stateMutability": "view",
      "type": "function"
    },
    {
      "inputs": [
        {
          "internalType": "bytes32",
          "name": "role",
          "type": "bytes32"
        },
        {
          "internalType": "address",
          "name": "account",
          "type": "address"
        }
      ],
      "name": "grantRole",
      "outputs": [],
      "stateMutability": "nonpayable",
      "type": "function"
    },
    {
      "inputs": [
        {
          "internalType": "bytes32",
          "name": "role",
          "type": "bytes32"
        },
        {
          "internalType": "address",
          "name": "account",
          "type": "address"
        }
      ],
      "name": "hasRole",
      "outputs": [
        {
          "internalType": "bool",
          "name": "",
          "type": "bool"
        }
      ],
      "stateMutability": "view",
      "type": "function"
    },
    {
      "inputs": [
        {
          "internalType": "address",
          "name": "owner",
          "type": "address"
        },
        {
          "internalType": "address",
          "name": "operator",
          "type": "address"
        }
      ],
      "name": "isApprovedForAll",
      "outputs": [
        {
          "internalType": "bool",
          "name": "",
          "type": "bool"
        }
      ],
      "stateMutability": "view",
      "type": "function"
    },
    {
      "inputs": [],
      "name": "name",
      "outputs": [
        {
          "internalType": "string",
          "name": "",
          "type": "string"
        }
      ],
      "stateMutability": "view",
      "type": "function"
    },
    {
      "inputs": [],
      "name": "owner",
      "outputs": [
        {
          "internalType": "address",
          "name": "",
          "type": "address"
        }
      ],
      "stateMutability": "view",
      "type": "function"
    },
    {
      "inputs": [
        {
          "internalType": "uint256",
          "name": "tokenId",
          "type": "uint256"
        }
      ],
      "name": "ownerOf",
      "outputs": [
        {
          "internalType": "address",
          "name": "",
          "type": "address"
        }
      ],
      "stateMutability": "view",
      "type": "function"
    },
    {
      "inputs": [],
      "name": "platformFee",
      "outputs": [
        {
          "internalType": "uint256",
          "name": "",
          "type": "uint256"
        }
      ],
      "stateMutability": "view",
      "type": "function"
    },
    {
      "inputs": [
        {
          "internalType": "address",
          "name": "to",
          "type": "address"
        },
        {
          "internalType": "string",
          "name": "uri",
          "type": "string"
        }
      ],
      "name": "preSafeMint",
      "outputs": [],
      "stateMutability": "payable",
      "type": "function"
    },
    {
      "inputs": [],
      "name": "renounceOwnership",
      "outputs": [],
      "stateMutability": "nonpayable",
      "type": "function"
    },
    {
      "inputs": [
        {
          "internalType": "bytes32",
          "name": "role",
          "type": "bytes32"
        },
        {
          "internalType": "address",
          "name": "callerConfirmation",
          "type": "address"
        }
      ],
      "name": "renounceRole",
      "outputs": [],
      "stateMutability": "nonpayable",
      "type": "function"
    },
    {
      "inputs": [
        {
          "internalType": "bytes32",
          "name": "role",
          "type": "bytes32"
        },
        {
          "internalType": "address",
          "name": "account",
          "type": "address"
        }
      ],
      "name": "revokeRole",
      "outputs": [],
      "stateMutability": "nonpayable",
      "type": "function"
    },
    {
      "inputs": [
        {
          "internalType": "address",
          "name": "from",
          "type": "address"
        },
        {
          "internalType": "address",
          "name": "to",
          "type": "address"
        },
        {
          "internalType": "uint256",
          "name": "tokenId",
          "type": "uint256"
        }
      ],
      "name": "safeTransferFrom",
      "outputs": [],
      "stateMutability": "nonpayable",
      "type": "function"
    },
    {
      "inputs": [
        {
          "internalType": "address",
          "name": "from",
          "type": "address"
        },
        {
          "internalType": "address",
          "name": "to",
          "type": "address"
        },
        {
          "internalType": "uint256",
          "name": "tokenId",
          "type": "uint256"
        },
        {
          "internalType": "bytes",
          "name": "data",
          "type": "bytes"
        }
      ],
      "name": "safeTransferFrom",
      "outputs": [],
      "stateMutability": "nonpayable",
      "type": "function"
    },
    {
      "inputs": [
        {
          "internalType": "address",
          "name": "operator",
          "type": "address"
        },
        {
          "internalType": "bool",
          "name": "approved",
          "type": "bool"
        }
      ],
      "name": "setApprovalForAll",
      "outputs": [],
      "stateMutability": "nonpayable",
      "type": "function"
    },
    {
      "inputs": [
        {
          "internalType": "address payable",
          "name": "_feeRecipient",
          "type": "address"
        }
      ],
      "name": "setFeeRecipient",
      "outputs": [],
      "stateMutability": "nonpayable",
      "type": "function"
    },
    {
      "inputs": [
        {
          "internalType": "bool",
          "name": "enabled",
          "type": "bool"
        }
      ],
      "name": "setMintEnabled",
      "outputs": [],
      "stateMutability": "nonpayable",
      "type": "function"
    },
    {
      "inputs": [
        {
          "internalType": "uint256",
          "name": "_platformFee",
          "type": "uint256"
        }
      ],
      "name": "setPlatformFee",
      "outputs": [],
      "stateMutability": "nonpayable",
      "type": "function"
    },
    {
      "inputs": [
        {
          "internalType": "bytes4",
          "name": "interfaceId",
          "type": "bytes4"
        }
      ],
      "name": "supportsInterface",
      "outputs": [
        {
          "internalType": "bool",
          "name": "",
          "type": "bool"
        }
      ],
      "stateMutability": "view",
      "type": "function"
    },
    {
      "inputs": [],
      "name": "symbol",
      "outputs": [
        {
          "internalType": "string",
          "name": "",
          "type": "string"
        }
      ],
      "stateMutability": "view",
      "type": "function"
    },
    {
      "inputs": [
        {
          "internalType": "uint256",
          "name": "index",
          "type": "uint256"
        }
      ],
      "name": "tokenByIndex",
      "outputs": [
        {
          "internalType": "uint256",
          "name": "",
          "type": "uint256"
        }
      ],
      "stateMutability": "view",
      "type": "function"
    },
    {
      "inputs": [
        {
          "internalType": "address",
          "name": "owner",
          "type": "address"
        },
        {
          "internalType": "uint256",
          "name": "index",
          "type": "uint256"
        }
      ],
      "name": "tokenOfOwnerByIndex",
      "outputs": [
        {
          "internalType": "uint256",
          "name": "",
          "type": "uint256"
        }
      ],
      "stateMutability": "view",
      "type": "function"
    },
    {
      "inputs": [
        {
          "internalType": "uint256",
          "name": "tokenId",
          "type": "uint256"
        }
      ],
      "name": "tokenURI",
      "outputs": [
        {
          "internalType": "string",
          "name": "",
          "type": "string"
        }
      ],
      "stateMutability": "view",
      "type": "function"
    },
    {
      "inputs": [],
      "name": "totalSupply",
      "outputs": [
        {
          "internalType": "uint256",
          "name": "",
          "type": "uint256"
        }
      ],
      "stateMutability": "view",
      "type": "function"
    },
    {
      "inputs": [
        {
          "internalType": "address",
          "name": "from",
          "type": "address"
        },
        {
          "internalType": "address",
          "name": "to",
          "type": "address"
        },
        {
          "internalType": "uint256",
          "name": "tokenId",
          "type": "uint256"
        }
      ],
      "name": "transferFrom",
      "outputs": [],
      "stateMutability": "nonpayable",
      "type": "function"
    },
    {
      "inputs": [
        {
          "internalType": "address",
          "name": "newOwner",
          "type": "address"
        }
      ],
      "name": "transferOwnership",
      "outputs": [],
      "stateMutability": "nonpayable",
      "type": "function"
    }
  ],
  "bytecode": "0x608060405234801561001057600080fd5b506040516142ad3803806142ad83398181016040528101906100329190610463565b336040518060400160405280600681526020017f41616172746f00000000000000000000000000000000000000000000000000008152506040518060400160405280600681526020017f41414152544f000000000000000000000000000000000000000000000000000081525081600090816100ae91906106d6565b5080600190816100be91906106d6565b505050600073ffffffffffffffffffffffffffffffffffffffff168173ffffffffffffffffffffffffffffffffffffffff16036101335760006040517f1e4fbdf700000000000000000000000000000000000000000000000000000000815260040161012a91906107e9565b60405180910390fd5b610142816101f160201b60201c565b506101566000801b336102b760201b60201c565b506101877f9f2df0fed2c77648de5860a4cc508cd0818c85b8b8a1ab4ceeef8d981c8956a6336102b760201b60201c565b5080600f8190555033601060006101000a81548173ffffffffffffffffffffffffffffffffffffffff021916908373ffffffffffffffffffffffffffffffffffffffff1602179055506001600e60006101000a81548160ff02191690831515021790555050610804565b6000600c60009054906101000a900473ffffffffffffffffffffffffffffffffffffffff16905081600c60006101000a81548173ffffffffffffffffffffffffffffffffffffffff021916908373ffffffffffffffffffffffffffffffffffffffff1602179055508173ffffffffffffffffffffffffffffffffffffffff168173ffffffffffffffffffffffffffffffffffffffff167f8be0079c531659141344cd1fd0a4f28419497f9722a3daafe3b4186f6b6457e060405160405180910390a35050565b60006102c983836103b560201b60201c565b6103aa576001600b600085815260200190815260200160002060000160008473ffffffffffffffffffffffffffffffffffffffff1673ffffffffffffffffffffffffffffffffffffffff16815260200190815260200160002060006101000a81548160ff02191690831515021790555061034761042060201b60201c565b73ffffffffffffffffffffffffffffffffffffffff168273ffffffffffffffffffffffffffffffffffffffff16847f2f8788117e7eff1d82e926ec794901d17c78024a50270940304540a733656f0d60405160405180910390a4600190506103af565b600090505b92915050565b6000600b600084815260200190815260200160002060000160008373ffffffffffffffffffffffffffffffffffffffff1673ffffffffffffffffffffffffffffffffffffffff16815260200190815260200160002060009054906101000a900460ff16905092915050565b600033905090565b600080fd5b6000819050919050565b6104408161042d565b811461044b57600080fd5b50565b60008151905061045d81610437565b92915050565b60006020828403121561047957610478610428565b5b60006104878482850161044e565b91505092915050565b600081519050919050565b7f4e487b7100000000000000000000000000000000000000000000000000000000600052604160045260246000fd5b7f4e487b7100000000000000000000000000000000000000000000000000000000600052602260045260246000fd5b6000600282049050600182168061051157607f821691505b602082108103610524576105236104ca565b5b50919050565b60008190508160005260206000209050919050565b60006020601f8301049050919050565b600082821b905092915050565b60006008830261058c7fffffffffffffffffffffffffffffffffffffffffffffffffffffffffffffffff8261054f565b610596868361054f565b95508019841693508086168417925050509392505050565b6000819050919050565b60006105d36105ce6105c98461042d565b6105ae565b61042d565b9050919050565b6000819050919050565b6105ed836105b8565b6106016105f9826105da565b84845461055c565b825550505050565b600090565b610616610609565b6106218184846105e4565b505050565b5b818110156106455761063a60008261060e565b600181019050610627565b5050565b601f82111561068a5761065b8161052a565b6106648461053f565b81016020851015610673578190505b61068761067f8561053f565b830182610626565b50505b505050565b600082821c905092915050565b60006106ad6000198460080261068f565b1980831691505092915050565b60006106c6838361069c565b9150826002028217905092915050565b6106df82610490565b67ffffffffffffffff8111156106f8576106f761049b565b5b61070282546104f9565b61070d828285610649565b600060209050601f831160018114610740576000841561072e578287015190505b61073885826106ba565b8655506107a0565b601f19841661074e8661052a565b60005b8281101561077657848901518255600182019150602085019450602081019050610751565b86831015610793578489015161078f601f89168261069c565b8355505b6001600288020188555050505b505050505050565b600073ffffffffffffffffffffffffffffffffffffffff82169050919050565b60006107d3826107a8565b9050919050565b6107e3816107c8565b82525050565b60006020820190506107fe60008301846107da565b92915050565b613a9a806108136000396000f3fe6080604052600436106101ee5760003560e01c80634f6ccce71161010d578063a22cb465116100a0578063d547741f1161006f578063d547741f14610714578063e74b981b1461073d578063e985e9c514610766578063f2fde38b146107a3578063f46a04eb146107cc576101ee565b8063a22cb4651461065a578063b88d4fde14610683578063c87b56dd146106ac578063d5391393146106e9576101ee565b80638da5cb5b116100dc5780638da5cb5b1461059c57806391d14854146105c757806395d89b4114610604578063a217fddf1461062f576101ee565b80634f6ccce7146104ce5780636352211e1461050b57806370a0823114610548578063715018a614610585576101ee565b8063248a9ca31161018557806336568abe1161015457806336568abe1461042857806342842e0e1461045157806342966c681461047a57806346904840146104a3576101ee565b8063248a9ca31461035a57806326232a2e146103975780632f2ff15d146103c25780632f745c59146103eb576101ee565b806312e8e2c3116101c157806312e8e2c3146102c157806318160ddd146102ea578063227b93761461031557806323b872dd14610331576101ee565b806301ffc9a7146101f357806306fdde0314610230578063081812fc1461025b578063095ea7b314610298575b600080fd5b3480156101ff57600080fd5b5061021a60048036038101906102159190612bd0565b6107f5565b6040516102279190612c18565b60405180910390f35b34801561023c57600080fd5b50610245610807565b6040516102529190612cc3565b60405180910390f35b34801561026757600080fd5b50610282600480360381019061027d9190612d1b565b610899565b60405161028f9190612d89565b60405180910390f35b3480156102a457600080fd5b506102bf60048036038101906102ba9190612dd0565b6108b5565b005b3480156102cd57600080fd5b506102e860048036038101906102e39190612d1b565b6108cb565b005b3480156102f657600080fd5b506102ff6108dd565b60405161030c9190612e1f565b60405180910390f35b61032f600480360381019061032a9190612f6f565b6108ea565b005b34801561033d57600080fd5b5061035860048036038101906103539190612fcb565b610a5d565b005b34801561036657600080fd5b50610381600480360381019061037c9190613054565b610b5f565b60405161038e9190613090565b60405180910390f35b3480156103a357600080fd5b506103ac610b7f565b6040516103b99190612e1f565b60405180910390f35b3480156103ce57600080fd5b506103e960048036038101906103e491906130ab565b610b85565b005b3480156103f757600080fd5b50610412600480360381019061040d9190612dd0565b610ba7565b60405161041f9190612e1f565b60405180910390f35b34801561043457600080fd5b5061044f600480360381019061044a91906130ab565b610c50565b005b34801561045d57600080fd5b5061047860048036038101906104739190612fcb565b610ccb565b005b34801561048657600080fd5b506104a1600480360381019061049c9190612d1b565b610ceb565b005b3480156104af57600080fd5b506104b8610d02565b6040516104c5919061310c565b60405180910390f35b3480156104da57600080fd5b506104f560048036038101906104f09190612d1b565b610d28565b6040516105029190612e1f565b60405180910390f35b34801561051757600080fd5b50610532600480360381019061052d9190612d1b565b610d9e565b60405161053f9190612d89565b60405180910390f35b34801561055457600080fd5b5061056f600480360381019061056a9190613127565b610db0565b60405161057c9190612e1f565b60405180910390f35b34801561059157600080fd5b5061059a610e6a565b005b3480156105a857600080fd5b506105b1610e7e565b6040516105be9190612d89565b60405180910390f35b3480156105d357600080fd5b506105ee60048036038101906105e991906130ab565b610ea8565b6040516105fb9190612c18565b60405180910390f35b34801561061057600080fd5b50610619610f13565b6040516106269190612cc3565b60405180910390f35b34801561063b57600080fd5b50610644610fa5565b6040516106519190613090565b60405180910390f35b34801561066657600080fd5b50610681600480360381019061067c9190613180565b610fac565b005b34801561068f57600080fd5b506106aa60048036038101906106a59190613261565b610fc2565b005b3480156106b857600080fd5b506106d360048036038101906106ce9190612d1b565b610fe7565b6040516106e09190612cc3565b60405180910390f35b3480156106f557600080fd5b506106fe610ff9565b60405161070b9190613090565b60405180910390f35b34801561072057600080fd5b5061073b600480360381019061073691906130ab565b61101d565b005b34801561074957600080fd5b50610764600480360381019061075f9190613310565b61103f565b005b34801561077257600080fd5b5061078d6004803603810190610788919061333d565b61108b565b60405161079a9190612c18565b60405180910390f35b3480156107af57600080fd5b506107ca60048036038101906107c59190613127565b61111f565b005b3480156107d857600080fd5b506107f360048036038101906107ee919061337d565b6111a5565b005b6000610800826111d0565b9050919050565b606060008054610816906133d9565b80601f0160208091040260200160405190810160405280929190818152602001828054610842906133d9565b801561088f5780601f106108645761010080835404028352916020019161088f565b820191906000526020600020905b81548152906001019060200180831161087257829003601f168201915b5050505050905090565b60006108a48261124a565b506108ae826112d2565b9050919050565b6108c782826108c261130f565b611317565b5050565b6108d3611329565b80600f8190555050565b6000600880549050905090565b600e60009054906101000a900460ff168061093757503373ffffffffffffffffffffffffffffffffffffffff1661091f610e7e565b73ffffffffffffffffffffffffffffffffffffffff16145b610976576040517f08c379a000000000000000000000000000000000000000000000000000000000815260040161096d90613456565b60405180910390fd5b600f543410156109bb576040517f08c379a00000000000000000000000000000000000000000000000000000000081526004016109b2906134c2565b60405180910390fd5b601060009054906101000a900473ffffffffffffffffffffffffffffffffffffffff1673ffffffffffffffffffffffffffffffffffffffff166108fc349081150290604051600060405180830381858888f19350505050158015610a23573d6000803e3d6000fd5b50610a4e7f9f2df0fed2c77648de5860a4cc508cd0818c85b8b8a1ab4ceeef8d981c8956a6336113b0565b50610a5982826114a2565b5050565b600073ffffffffffffffffffffffffffffffffffffffff168273ffffffffffffffffffffffffffffffffffffffff1603610acf5760006040517f64a0ae92000000000000000000000000000000000000000000000000000000008152600401610ac69190612d89565b60405180910390fd5b6000610ae38383610ade61130f565b611550565b90508373ffffffffffffffffffffffffffffffffffffffff168173ffffffffffffffffffffffffffffffffffffffff1614610b59578382826040517f64283d7b000000000000000000000000000000000000000000000000000000008152600401610b50939291906134e2565b60405180910390fd5b50505050565b6000600b6000838152602001908152602001600020600101549050919050565b600f5481565b610b8e82610b5f565b610b9781611566565b610ba183836113b0565b50505050565b6000610bb283610db0565b8210610bf75782826040517fa57d13dc000000000000000000000000000000000000000000000000000000008152600401610bee929190613519565b60405180910390fd5b600660008473ffffffffffffffffffffffffffffffffffffffff1673ffffffffffffffffffffffffffffffffffffffff168152602001908152602001600020600083815260200190815260200160002054905092915050565b610c5861130f565b73ffffffffffffffffffffffffffffffffffffffff168173ffffffffffffffffffffffffffffffffffffffff1614610cbc576040517f6697b23200000000000000000000000000000000000000000000000000000000815260040160405180910390fd5b610cc6828261157a565b505050565b610ce683838360405180602001604052806000815250610fc2565b505050565b610cfe600082610cf961130f565b611550565b5050565b601060009054906101000a900473ffffffffffffffffffffffffffffffffffffffff1681565b6000610d326108dd565b8210610d78576000826040517fa57d13dc000000000000000000000000000000000000000000000000000000008152600401610d6f929190613519565b60405180910390fd5b60088281548110610d8c57610d8b613542565b5b90600052602060002001549050919050565b6000610da98261124a565b9050919050565b60008073ffffffffffffffffffffffffffffffffffffffff168273ffffffffffffffffffffffffffffffffffffffff1603610e235760006040517f89c62b64000000000000000000000000000000000000000000000000000000008152600401610e1a9190612d89565b60405180910390fd5b600360008373ffffffffffffffffffffffffffffffffffffffff1673ffffffffffffffffffffffffffffffffffffffff168152602001908152602001600020549050919050565b610e72611329565b610e7c600061166d565b565b6000600c60009054906101000a900473ffffffffffffffffffffffffffffffffffffffff16905090565b6000600b600084815260200190815260200160002060000160008373ffffffffffffffffffffffffffffffffffffffff1673ffffffffffffffffffffffffffffffffffffffff16815260200190815260200160002060009054906101000a900460ff16905092915050565b606060018054610f22906133d9565b80601f0160208091040260200160405190810160405280929190818152602001828054610f4e906133d9565b8015610f9b5780601f10610f7057610100808354040283529160200191610f9b565b820191906000526020600020905b815481529060010190602001808311610f7e57829003601f168201915b5050505050905090565b6000801b81565b610fbe610fb761130f565b8383611733565b5050565b610fcd848484610a5d565b610fe1610fd861130f565b858585856118a2565b50505050565b6060610ff282611a53565b9050919050565b7f9f2df0fed2c77648de5860a4cc508cd0818c85b8b8a1ab4ceeef8d981c8956a681565b61102682610b5f565b61102f81611566565b611039838361157a565b50505050565b611047611329565b80601060006101000a81548173ffffffffffffffffffffffffffffffffffffffff021916908373ffffffffffffffffffffffffffffffffffffffff16021790555050565b6000600560008473ffffffffffffffffffffffffffffffffffffffff1673ffffffffffffffffffffffffffffffffffffffff16815260200190815260200160002060008373ffffffffffffffffffffffffffffffffffffffff1673ffffffffffffffffffffffffffffffffffffffff16815260200190815260200160002060009054906101000a900460ff16905092915050565b611127611329565b600073ffffffffffffffffffffffffffffffffffffffff168173ffffffffffffffffffffffffffffffffffffffff16036111995760006040517f1e4fbdf70000000000000000000000000000000000000000000000000000000081526004016111909190612d89565b60405180910390fd5b6111a28161166d565b50565b6000801b6111b281611566565b81600e60006101000a81548160ff0219169083151502179055505050565b60007f7965db0b000000000000000000000000000000000000000000000000000000007bffffffffffffffffffffffffffffffffffffffffffffffffffffffff1916827bffffffffffffffffffffffffffffffffffffffffffffffffffffffff19161480611243575061124282611b66565b5b9050919050565b60008061125683611bc7565b9050600073ffffffffffffffffffffffffffffffffffffffff168173ffffffffffffffffffffffffffffffffffffffff16036112c957826040517f7e2732890000000000000000000000000000000000000000000000000000000081526004016112c09190612e1f565b60405180910390fd5b80915050919050565b60006004600083815260200190815260200160002060009054906101000a900473ffffffffffffffffffffffffffffffffffffffff169050919050565b600033905090565b6113248383836001611c04565b505050565b61133161130f565b73ffffffffffffffffffffffffffffffffffffffff1661134f610e7e565b73ffffffffffffffffffffffffffffffffffffffff16146113ae5761137261130f565b6040517f118cdaa70000000000000000000000000000000000000000000000000000000081526004016113a59190612d89565b60405180910390fd5b565b60006113bc8383610ea8565b611497576001600b600085815260200190815260200160002060000160008473ffffffffffffffffffffffffffffffffffffffff1673ffffffffffffffffffffffffffffffffffffffff16815260200190815260200160002060006101000a81548160ff02191690831515021790555061143461130f565b73ffffffffffffffffffffffffffffffffffffffff168273ffffffffffffffffffffffffffffffffffffffff16847f2f8788117e7eff1d82e926ec794901d17c78024a50270940304540a733656f0d60405160405180910390a46001905061149c565b600090505b92915050565b7f9f2df0fed2c77648de5860a4cc508cd0818c85b8b8a1ab4ceeef8d981c8956a66114cc81611566565b6000600d60008154809291906114e1906135a0565b9190505590506114f18482611dc9565b6114fb8184611de7565b808473ffffffffffffffffffffffffffffffffffffffff167f85a66b9141978db9980f7e0ce3b468cebf4f7999f32b23091c5c03e798b1ba7a856040516115429190612cc3565b60405180910390a350505050565b600061155d848484611e43565b90509392505050565b6115778161157261130f565b611f60565b50565b60006115868383610ea8565b15611662576000600b600085815260200190815260200160002060000160008473ffffffffffffffffffffffffffffffffffffffff1673ffffffffffffffffffffffffffffffffffffffff16815260200190815260200160002060006101000a81548160ff0219169083151502179055506115ff61130f565b73ffffffffffffffffffffffffffffffffffffffff168273ffffffffffffffffffffffffffffffffffffffff16847ff6391f5c32d9c69d2a47ea670b442974b53935d1edc7fd64eb21e047a839171b60405160405180910390a460019050611667565b600090505b92915050565b6000600c60009054906101000a900473ffffffffffffffffffffffffffffffffffffffff16905081600c60006101000a81548173ffffffffffffffffffffffffffffffffffffffff021916908373ffffffffffffffffffffffffffffffffffffffff1602179055508173ffffffffffffffffffffffffffffffffffffffff168173ffffffffffffffffffffffffffffffffffffffff167f8be0079c531659141344cd1fd0a4f28419497f9722a3daafe3b4186f6b6457e060405160405180910390a35050565b600073ffffffffffffffffffffffffffffffffffffffff168273ffffffffffffffffffffffffffffffffffffffff16036117a457816040517f5b08ba1800000000000000000000000000000000000000000000000000000000815260040161179b9190612d89565b60405180910390fd5b80600560008573ffffffffffffffffffffffffffffffffffffffff1673ffffffffffffffffffffffffffffffffffffffff16815260200190815260200160002060008473ffffffffffffffffffffffffffffffffffffffff1673ffffffffffffffffffffffffffffffffffffffff16815260200190815260200160002060006101000a81548160ff0219169083151502179055508173ffffffffffffffffffffffffffffffffffffffff168373ffffffffffffffffffffffffffffffffffffffff167f17307eab39ab6107e8899845ad3d59bd9653f200f220920489ca2b5937696c31836040516118959190612c18565b60405180910390a3505050565b60008373ffffffffffffffffffffffffffffffffffffffff163b1115611a4c578273ffffffffffffffffffffffffffffffffffffffff1663150b7a02868685856040518563ffffffff1660e01b8152600401611901949392919061363d565b6020604051808303816000875af192505050801561193d57506040513d601f19601f8201168201806040525081019061193a919061369e565b60015b6119c1573d806000811461196d576040519150601f19603f3d011682016040523d82523d6000602084013e611972565b606091505b5060008151036119b957836040517f64a0ae920000000000000000000000000000000000000000000000000000000081526004016119b09190612d89565b60405180910390fd5b805181602001fd5b63150b7a0260e01b7bffffffffffffffffffffffffffffffffffffffffffffffffffffffff1916817bffffffffffffffffffffffffffffffffffffffffffffffffffffffff191614611a4a57836040517f64a0ae92000000000000000000000000000000000000000000000000000000008152600401611a419190612d89565b60405180910390fd5b505b5050505050565b6060611a5e8261124a565b506000600a60008481526020019081526020016000208054611a7f906133d9565b80601f0160208091040260200160405190810160405280929190818152602001828054611aab906133d9565b8015611af85780601f10611acd57610100808354040283529160200191611af8565b820191906000526020600020905b815481529060010190602001808311611adb57829003601f168201915b505050505090506000611b09611fb1565b90506000815103611b1e578192505050611b61565b600082511115611b53578082604051602001611b3b929190613707565b60405160208183030381529060405292505050611b61565b611b5c84611fc8565b925050505b919050565b6000634906490660e01b7bffffffffffffffffffffffffffffffffffffffffffffffffffffffff1916827bffffffffffffffffffffffffffffffffffffffffffffffffffffffff19161480611bc05750611bbf82612031565b5b9050919050565b60006002600083815260200190815260200160002060009054906101000a900473ffffffffffffffffffffffffffffffffffffffff169050919050565b8080611c3d5750600073ffffffffffffffffffffffffffffffffffffffff168273ffffffffffffffffffffffffffffffffffffffff1614155b15611d71576000611c4d8461124a565b9050600073ffffffffffffffffffffffffffffffffffffffff168373ffffffffffffffffffffffffffffffffffffffff1614158015611cb857508273ffffffffffffffffffffffffffffffffffffffff168173ffffffffffffffffffffffffffffffffffffffff1614155b8015611ccb5750611cc9818461108b565b155b15611d0d57826040517fa9fbf51f000000000000000000000000000000000000000000000000000000008152600401611d049190612d89565b60405180910390fd5b8115611d6f57838573ffffffffffffffffffffffffffffffffffffffff168273ffffffffffffffffffffffffffffffffffffffff167f8c5be1e5ebec7d5bd14f71427d1e84f3dd0314c0f7b2291e5b200ac8c7c3b92560405160405180910390a45b505b836004600085815260200190815260200160002060006101000a81548173ffffffffffffffffffffffffffffffffffffffff021916908373ffffffffffffffffffffffffffffffffffffffff16021790555050505050565b611de38282604051806020016040528060008152506120ab565b5050565b80600a60008481526020019081526020016000209081611e0791906138d7565b507ff8e1a15aba9398e019f0b49df1a4fde98ee17ae345cb5f6b5e2c27f5033e8ce782604051611e379190612e1f565b60405180910390a15050565b600080611e518585856120cf565b9050600073ffffffffffffffffffffffffffffffffffffffff168173ffffffffffffffffffffffffffffffffffffffff1603611e9557611e90846122e9565b611ed4565b8473ffffffffffffffffffffffffffffffffffffffff168173ffffffffffffffffffffffffffffffffffffffff1614611ed357611ed28185612332565b5b5b600073ffffffffffffffffffffffffffffffffffffffff168573ffffffffffffffffffffffffffffffffffffffff1603611f1657611f118461241d565b611f55565b8473ffffffffffffffffffffffffffffffffffffffff168173ffffffffffffffffffffffffffffffffffffffff1614611f5457611f5385856124ee565b5b5b809150509392505050565b611f6a8282610ea8565b611fad5780826040517fe2517d3f000000000000000000000000000000000000000000000000000000008152600401611fa49291906139a9565b60405180910390fd5b5050565b606060405180602001604052806000815250905090565b6060611fd38261124a565b506000611fde611fb1565b90506000815111611ffe5760405180602001604052806000815250612029565b8061200884612579565b604051602001612019929190613707565b6040516020818303038152906040525b915050919050565b60007f780e9d63000000000000000000000000000000000000000000000000000000007bffffffffffffffffffffffffffffffffffffffffffffffffffffffff1916827bffffffffffffffffffffffffffffffffffffffffffffffffffffffff191614806120a457506120a382612647565b5b9050919050565b6120b58383612729565b6120ca6120c061130f565b60008585856118a2565b505050565b6000806120db84611bc7565b9050600073ffffffffffffffffffffffffffffffffffffffff168373ffffffffffffffffffffffffffffffffffffffff161461211d5761211c818486612822565b5b600073ffffffffffffffffffffffffffffffffffffffff168173ffffffffffffffffffffffffffffffffffffffff16146121ae5761215f600085600080611c04565b6001600360008373ffffffffffffffffffffffffffffffffffffffff1673ffffffffffffffffffffffffffffffffffffffff168152602001908152602001600020600082825403925050819055505b600073ffffffffffffffffffffffffffffffffffffffff168573ffffffffffffffffffffffffffffffffffffffff1614612231576001600360008773ffffffffffffffffffffffffffffffffffffffff1673ffffffffffffffffffffffffffffffffffffffff168152602001908152602001600020600082825401925050819055505b846002600086815260200190815260200160002060006101000a81548173ffffffffffffffffffffffffffffffffffffffff021916908373ffffffffffffffffffffffffffffffffffffffff160217905550838573ffffffffffffffffffffffffffffffffffffffff168273ffffffffffffffffffffffffffffffffffffffff167fddf252ad1be2c89b69c2b068fc378daa952ba7f163c4a11628f55a4df523b3ef60405160405180910390a4809150509392505050565b6008805490506009600083815260200190815260200160002081905550600881908060018154018082558091505060019003906000526020600020016000909190919091505550565b600061233d83610db0565b90506000600760008481526020019081526020016000205490506000600660008673ffffffffffffffffffffffffffffffffffffffff1673ffffffffffffffffffffffffffffffffffffffff16815260200190815260200160002090508282146123e95760008160008581526020019081526020016000205490508082600085815260200190815260200160002081905550826007600083815260200190815260200160002081905550505b6007600085815260200190815260200160002060009055806000848152602001908152602001600020600090555050505050565b6000600160088054905061243191906139d2565b905060006009600084815260200190815260200160002054905060006008838154811061246157612460613542565b5b90600052602060002001549050806008838154811061248357612482613542565b5b9060005260206000200181905550816009600083815260200190815260200160002081905550600960008581526020019081526020016000206000905560088054806124d2576124d1613a06565b5b6001900381819060005260206000200160009055905550505050565b600060016124fb84610db0565b61250591906139d2565b905081600660008573ffffffffffffffffffffffffffffffffffffffff1673ffffffffffffffffffffffffffffffffffffffff168152602001908152602001600020600083815260200190815260200160002081905550806007600084815260200190815260200160002081905550505050565b606060006001612588846128e6565b01905060008167ffffffffffffffff8111156125a7576125a6612e44565b5b6040519080825280601f01601f1916602001820160405280156125d95781602001600182028036833780820191505090505b509050600082602001820190505b60011561263c578080600190039150507f3031323334353637383961626364656600000000000000000000000000000000600a86061a8153600a85816126305761262f613a35565b5b049450600085036125e7575b819350505050919050565b60007f80ac58cd000000000000000000000000000000000000000000000000000000007bffffffffffffffffffffffffffffffffffffffffffffffffffffffff1916827bffffffffffffffffffffffffffffffffffffffffffffffffffffffff1916148061271257507f5b5e139f000000000000000000000000000000000000000000000000000000007bffffffffffffffffffffffffffffffffffffffffffffffffffffffff1916827bffffffffffffffffffffffffffffffffffffffffffffffffffffffff1916145b80612722575061272182612a39565b5b9050919050565b600073ffffffffffffffffffffffffffffffffffffffff168273ffffffffffffffffffffffffffffffffffffffff160361279b5760006040517f64a0ae920000000000000000000000000000000000000000000000000000000081526004016127929190612d89565b60405180910390fd5b60006127a983836000611550565b9050600073ffffffffffffffffffffffffffffffffffffffff168173ffffffffffffffffffffffffffffffffffffffff161461281d5760006040517f73c6ac6e0000000000000000000000000000000000000000000000000000000081526004016128149190612d89565b60405180910390fd5b505050565b61282d838383612aa3565b6128e157600073ffffffffffffffffffffffffffffffffffffffff168373ffffffffffffffffffffffffffffffffffffffff16036128a257806040517f7e2732890000000000000000000000000000000000000000000000000000000081526004016128999190612e1f565b60405180910390fd5b81816040517f177e802f0000000000000000000000000000000000000000000000000000000081526004016128d8929190613519565b60405180910390fd5b505050565b600080600090507a184f03e93ff9f4daa797ed6e38ed64bf6a1f0100000000000000008310612944577a184f03e93ff9f4daa797ed6e38ed64bf6a1f010000000000000000838161293a57612939613a35565b5b0492506040810190505b6d04ee2d6d415b85acef81000000008310612981576d04ee2d6d415b85acef8100000000838161297757612976613a35565b5b0492506020810190505b662386f26fc1000083106129b057662386f26fc1000083816129a6576129a5613a35565b5b0492506010810190505b6305f5e10083106129d9576305f5e10083816129cf576129ce613a35565b5b0492506008810190505b61271083106129fe5761271083816129f4576129f3613a35565b5b0492506004810190505b60648310612a215760648381612a1757612a16613a35565b5b0492506002810190505b600a8310612a30576001810190505b80915050919050565b60007f01ffc9a7000000000000000000000000000000000000000000000000000000007bffffffffffffffffffffffffffffffffffffffffffffffffffffffff1916827bffffffffffffffffffffffffffffffffffffffffffffffffffffffff1916149050919050565b60008073ffffffffffffffffffffffffffffffffffffffff168373ffffffffffffffffffffffffffffffffffffffff1614158015612b5b57508273ffffffffffffffffffffffffffffffffffffffff168473ffffffffffffffffffffffffffffffffffffffff161480612b1c5750612b1b848461108b565b5b80612b5a57508273ffffffffffffffffffffffffffffffffffffffff16612b42836112d2565b73ffffffffffffffffffffffffffffffffffffffff16145b5b90509392505050565b6000604051905090565b600080fd5b600080fd5b60007fffffffff0000000000000000000000000000000000000000000000000000000082169050919050565b612bad81612b78565b8114612bb857600080fd5b50565b600081359050612bca81612ba4565b92915050565b600060208284031215612be657612be5612b6e565b5b6000612bf484828501612bbb565b91505092915050565b60008115159050919050565b612c1281612bfd565b82525050565b6000602082019050612c2d6000830184612c09565b92915050565b600081519050919050565b600082825260208201905092915050565b60005b83811015612c6d578082015181840152602081019050612c52565b60008484015250505050565b6000601f19601f8301169050919050565b6000612c9582612c33565b612c9f8185612c3e565b9350612caf818560208601612c4f565b612cb881612c79565b840191505092915050565b60006020820190508181036000830152612cdd8184612c8a565b905092915050565b6000819050919050565b612cf881612ce5565b8114612d0357600080fd5b50565b600081359050612d1581612cef565b92915050565b600060208284031215612d3157612d30612b6e565b5b6000612d3f84828501612d06565b91505092915050565b600073ffffffffffffffffffffffffffffffffffffffff82169050919050565b6000612d7382612d48565b9050919050565b612d8381612d68565b82525050565b6000602082019050612d9e6000830184612d7a565b92915050565b612dad81612d68565b8114612db857600080fd5b50565b600081359050612dca81612da4565b92915050565b60008060408385031215612de757612de6612b6e565b5b6000612df585828601612dbb565b9250506020612e0685828601612d06565b9150509250929050565b612e1981612ce5565b82525050565b6000602082019050612e346000830184612e10565b92915050565b600080fd5b600080fd5b7f4e487b7100000000000000000000000000000000000000000000000000000000600052604160045260246000fd5b612e7c82612c79565b810181811067ffffffffffffffff82111715612e9b57612e9a612e44565b5b80604052505050565b6000612eae612b64565b9050612eba8282612e73565b919050565b600067ffffffffffffffff821115612eda57612ed9612e44565b5b612ee382612c79565b9050602081019050919050565b82818337600083830152505050565b6000612f12612f0d84612ebf565b612ea4565b905082815260208101848484011115612f2e57612f2d612e3f565b5b612f39848285612ef0565b509392505050565b600082601f830112612f5657612f55612e3a565b5b8135612f66848260208601612eff565b91505092915050565b60008060408385031215612f8657612f85612b6e565b5b6000612f9485828601612dbb565b925050602083013567ffffffffffffffff811115612fb557612fb4612b73565b5b612fc185828601612f41565b9150509250929050565b600080600060608486031215612fe457612fe3612b6e565b5b6000612ff286828701612dbb565b935050602061300386828701612dbb565b925050604061301486828701612d06565b9150509250925092565b6000819050919050565b6130318161301e565b811461303c57600080fd5b50565b60008135905061304e81613028565b92915050565b60006020828403121561306a57613069612b6e565b5b60006130788482850161303f565b91505092915050565b61308a8161301e565b82525050565b60006020820190506130a56000830184613081565b92915050565b600080604083850312156130c2576130c1612b6e565b5b60006130d08582860161303f565b92505060206130e185828601612dbb565b9150509250929050565b60006130f682612d48565b9050919050565b613106816130eb565b82525050565b600060208201905061312160008301846130fd565b92915050565b60006020828403121561313d5761313c612b6e565b5b600061314b84828501612dbb565b91505092915050565b61315d81612bfd565b811461316857600080fd5b50565b60008135905061317a81613154565b92915050565b6000806040838503121561319757613196612b6e565b5b60006131a585828601612dbb565b92505060206131b68582860161316b565b9150509250929050565b600067ffffffffffffffff8211156131db576131da612e44565b5b6131e482612c79565b9050602081019050919050565b60006132046131ff846131c0565b612ea4565b9050828152602081018484840111156132205761321f612e3f565b5b61322b848285612ef0565b509392505050565b600082601f83011261324857613247612e3a565b5b81356132588482602086016131f1565b91505092915050565b6000806000806080858703121561327b5761327a612b6e565b5b600061328987828801612dbb565b945050602061329a87828801612dbb565b93505060406132ab87828801612d06565b925050606085013567ffffffffffffffff8111156132cc576132cb612b73565b5b6132d887828801613233565b91505092959194509250565b6132ed816130eb565b81146132f857600080fd5b50565b60008135905061330a816132e4565b92915050565b60006020828403121561332657613325612b6e565b5b6000613334848285016132fb565b91505092915050565b6000806040838503121561335457613353612b6e565b5b600061336285828601612dbb565b925050602061337385828601612dbb565b9150509250929050565b60006020828403121561339357613392612b6e565b5b60006133a18482850161316b565b91505092915050565b7f4e487b7100000000000000000000000000000000000000000000000000000000600052602260045260246000fd5b600060028204905060018216806133f157607f821691505b602082108103613404576134036133aa565b5b50919050565b7f4d696e74696e67206e6f7420656e61626c65642063757272656e746c79000000600082015250565b6000613440601d83612c3e565b915061344b8261340a565b602082019050919050565b6000602082019050818103600083015261346f81613433565b9050919050565b7f496e73756666696369656e7420706c6174666f726d2066656500000000000000600082015250565b60006134ac601983612c3e565b91506134b782613476565b602082019050919050565b600060208201905081810360008301526134db8161349f565b9050919050565b60006060820190506134f76000830186612d7a565b6135046020830185612e10565b6135116040830184612d7a565b949350505050565b600060408201905061352e6000830185612d7a565b61353b6020830184612e10565b9392505050565b7f4e487b7100000000000000000000000000000000000000000000000000000000600052603260045260246000fd5b7f4e487b7100000000000000000000000000000000000000000000000000000000600052601160045260246000fd5b60006135ab82612ce5565b91507fffffffffffffffffffffffffffffffffffffffffffffffffffffffffffffffff82036135dd576135dc613571565b5b600182019050919050565b600081519050919050565b600082825260208201905092915050565b600061360f826135e8565b61361981856135f3565b9350613629818560208601612c4f565b61363281612c79565b840191505092915050565b60006080820190506136526000830187612d7a565b61365f6020830186612d7a565b61366c6040830185612e10565b818103606083015261367e8184613604565b905095945050505050565b60008151905061369881612ba4565b92915050565b6000602082840312156136b4576136b3612b6e565b5b60006136c284828501613689565b91505092915050565b600081905092915050565b60006136e182612c33565b6136eb81856136cb565b93506136fb818560208601612c4f565b80840191505092915050565b600061371382856136d6565b915061371f82846136d6565b91508190509392505050565b60008190508160005260206000209050919050565b60006020601f8301049050919050565b600082821b905092915050565b60006008830261378d7fffffffffffffffffffffffffffffffffffffffffffffffffffffffffffffffff82613750565b6137978683613750565b95508019841693508086168417925050509392505050565b6000819050919050565b60006137d46137cf6137ca84612ce5565b6137af565b612ce5565b9050919050565b6000819050919050565b6137ee836137b9565b6138026137fa826137db565b84845461375d565b825550505050565b600090565b61381761380a565b6138228184846137e5565b505050565b5b818110156138465761383b60008261380f565b600181019050613828565b5050565b601f82111561388b5761385c8161372b565b61386584613740565b81016020851015613874578190505b61388861388085613740565b830182613827565b50505b505050565b600082821c905092915050565b60006138ae60001984600802613890565b1980831691505092915050565b60006138c7838361389d565b9150826002028217905092915050565b6138e082612c33565b67ffffffffffffffff8111156138f9576138f8612e44565b5b61390382546133d9565b61390e82828561384a565b600060209050601f831160018114613941576000841561392f578287015190505b61393985826138bb565b8655506139a1565b601f19841661394f8661372b565b60005b8281101561397757848901518255600182019150602085019450602081019050613952565b868310156139945784890151613990601f89168261389d565b8355505b6001600288020188555050505b505050505050565b60006040820190506139be6000830185612d7a565b6139cb6020830184613081565b9392505050565b60006139dd82612ce5565b91506139e883612ce5565b9250828203905081811115613a00576139ff613571565b5b92915050565b7f4e487b7100000000000000000000000000000000000000000000000000000000600052603160045260246000fd5b7f4e487b7100000000000000000000000000000000000000000000000000000000600052601260045260246000fdfea26469706673582212207f2ffa6f0fc1be7c030bf112aab87f8de28ded019cb1e34499726386de7ef4e264736f6c634300081c0033",
  "linkReferences": {},
  "deployedLinkReferences": {}
}